:100000000C9446000C9466000C9466000C946600F8
:100010000C9466000C9466000C9466000C946600C8
:100020000C9466000C9466000C9468000C946600B6
:100030000C9466000C9466000C942B080C946600DB
:100040000C9466000C9403060C9466000C946600F5
:100050000C9466000C9466000C9466000C94660088
:100060000C9466000C9466000C9466000C94660078
:100070000C9466000C9466000C94980A0C9466002C
:100080000C9466000C9466000C94660011241FBE4C
:10009000CFEFD0E1DEBFCDBF12E0A0E0B1E0ECE7F2
:1000A000F4E300E00BBF02C007900D92A631B10748
:1000B000D9F71BBE12E0A6E1B2E001C01D92A53542
:1000C000B107E1F70E9470050C943C1A0C940000F3
:1000D0001F920F920FB60F921124DF93CF93CDB7DB
:1000E000DEB7CF91DF910F900FBE0F901F90189544
:1000F000DF93CF93CDB7DEB7AAE3B0E0EAE3F0E059
:10010000808181608C93ABE3B0E0EBE3F0E0808131
:1001100081608C93AAE3B0E0EAE3F0E080818D7F18
:100120008C93AAE3B0E0EAE3F0E080818B7F8C93CC
:10013000AAE3B0E0EAE3F0E08081877F8C93AAE352
:10014000B0E0EAE3F0E0808180618C93AAE3B0E064
:10015000EAE3F0E0808180628C93AAE3B0E0EAE316
:10016000F0E0808180648C93AAE3B0E0EAE3F0E001
:10017000808180688C93A4E3B0E0E4E3F0E08081C8
:100180008E7F8C93A4E3B0E0E4E3F0E080818D7F88
:100190008C93A4E3B0E0E4E3F0E080818B7F8C9368
:1001A000A4E3B0E0E4E3F0E08081877F8C9380E01B
:1001B00060E040E024E00E94360682E390E00E9486
:1001C000F7060E94150281E061E041E00E94EB0029
:1001D000CF91DF910895DF93CF9300D000D000D06E
:1001E000CDB7DEB78B836C834D838B818864282FDA
:1001F0008C81882F90E0880F991F282B8C81882F65
:1002000090E0880F991F880F991F822B8A838A811B
:100210000E94A50789838981813019F481E08E834A
:100220002DC081E00E94B30789838981813019F450
:1002300081E08E8323C080E60E94B3078983898191
:10024000813019F481E08E8319C00E9420088A81D0
:100250000E94A50789838981813019F481E08E830A
:100260000DC080E00E94B30789838981813019F431
:1002700081E08E8303C00E9420081E828E81269614
:100280000FB6F894DEBF0FBECDBFCF91DF910895BA
:10029000DF93CF93CDB7DEB72A970FB6F894DEBFC2
:1002A0000FBECDBF9E838D836F83488729878F8143
:1002B0008864282F8885882F90E0880F991F282B25
:1002C0008885882F90E0880F991F880F991F822BAF
:1002D0008A838A810E94A50789838981813019F4E4
:1002E00081E08A876CC080E00E94B307898389819E
:1002F000813019F481E08A8762C00E9420088A81D7
:100300000E94DE0789838981813019F481E08A8720
:1003100056C0CE010396019660E00E94EC078983E7
:100320008981813019F481E08A8749C0CE01039622
:1003300061E00E94EC0789838981813019F481E0B2
:100340008A873DC00E9420088B819C81992374F488
:100350008B819C81959587959595879595958795A2
:1003600095958795906F9C838B830CC08B819C8126
:100370009595879595958795959587959595879565
:100380009C838B838B819C81AA2797FDA095BA2F94
:10039000BC01CD010E949C16DC01CB01BC01CD014A
:1003A00020E030E040E85DE30E946614DC01CB0110
:1003B000ED81FE8180839183A283B3831A868A852F
:1003C0002A960FB6F894DEBF0FBECDBFCF91DF9156
:1003D0000895DF93CF9300D00F92CDB7DEB7898316
:1003E0006A834B83ABE3B0E0EBE3F0E080818E7F88
:1003F0008C93898160E070E00E94D0068A8160E081
:1004000070E00E94D0068B8160E070E00E94D00610
:10041000ABE3B0E0EBE3F0E0808181608C930F9080
:100420000F900F90CF91DF910895DF93CF93CDB7C9
:10043000DEB780910A0190910A0120910A01692F8B
:10044000422F0E94E901CF91DF910895DF93CF936E
:10045000CDB7DEB766970FB6F894DEBF0FBECDBF3F
:100460006C837D838E839F8348878885282F30E027
:100470003E8B2D8B8D899E898130910509F45AC15F
:100480002D893E892230310509F45BC28D899E8910
:10049000009709F017C36C817D818E819F8120E0D8
:1004A00030EC49E754E40E940C16181664F06C8195
:1004B0007D818E819F8120E030E046EC52EC0E94ED
:1004C0006C1688231CF491E09C8B00C36C817D81A9
:1004D0008E819F8120E030E040E050E00E940C16C9
:1004E00018160CF063C06C817D818E819F8120E0A5
:1004F00030E048EC52E40E946015DC01CB01BC0105
:10050000CD0120E030E040E050E00E940C161816CB
:10051000D4F46C817D818E819F8120E030E048ECB5
:1005200052E40E946015DC01CB011B8ABC01CD01A5
:1005300020E030E040E85FE30E943C168823E4F0CE
:1005400021E02B8B19C06C817D818E819F8120E001
:1005500030E048EC52EC0E946015DC01CB011B8AB4
:10056000BC01CD0120E030E040E85FE30E943C1692
:10057000882314F031E03B8B8B898823A1F06C81B8
:100580007D818E819F8120E030E048EC52E40E9422
:100590006015DC01CB01BC01CD010E949012DC0191
:1005A000CB018B8305C08AE08B8302C08BE08B83F9
:1005B0006C817D818E819F8120E030E040E251E4BA
:1005C0000E946015DC01CB01BC01CD0120E030E0D0
:1005D00040E050E00E940C161816D4F46C817D8126
:1005E0008E819F8120E030E040E251E40E9460155E
:1005F000DC01CB011A8ABC01CD0120E030E040E8EB
:100600005FE30E943C168823E4F091E09A8B19C0C6
:100610006C817D818E819F8120E030E040E251EC51
:100620000E946015DC01CB011A8ABC01CD0120E0DB
:1006300030E040E85FE30E943C16882314F021E09C
:100640002A8B3A893323E9F16C817D818E819F81E8
:100650000E94FA16DC01CB0124E630E0B9010E94C9
:10066000BC198A309105ACF06C817D818E819F81AF
:100670000E94FA16DC01CB0124E630E0B9010E94A9
:10068000BC192AE030E0B9010E94BC19CB01898B6A
:1006900015C06C817D818E819F810E94FA16DC01DC
:1006A000CB0124E630E0B9010E94BC192AE030E019
:1006B000B9010E94BC19CB018195898B89898A83F4
:1006C00002C08AE08A836C817D818E819F810E9435
:1006D000FA16DC01CB012AE030E0B9010E94BC1916
:1006E000988B8F872F85388933233CF48F859889A1
:1006F000909581959F4F988B8F879F8599838B814C
:10070000882F90E0FC01E050FF4F20818A81882FE4
:1007100090E0FC01E050FF4F30818981882F90E00C
:10072000FC01E050FF4F9081822F632F492F0E94E0
:10073000E901CBC16C817D818E819F8120E030E019
:1007400048EC52E40E943C16882364F46C817D815D
:100750008E819F8120E030E040E151EC0E946C16D8
:1007600088231CF421E02C8BB1C16C817D818E81AA
:100770009F8120E030E040E050E00E940C16181607
:100780000CF063C06C817D818E819F8120E030E020
:1007900040E251E40E946015DC01CB01BC01CD01B7
:1007A00020E030E040E050E00E940C161816D4F42F
:1007B0006C817D818E819F8120E030E040E251E4B8
:1007C0000E946015DC01CB011E86BC01CD0120E03A
:1007D00030E040E85FE30E943C168823E4F031E01B
:1007E0003E8719C06C817D818E819F8120E030E041
:1007F00040E251EC0E946015DC01CB011E86BC0179
:10080000CD0120E030E040E85FE30E943C16882301
:1008100014F081E08E879E859923A1F06C817D8103
:100820008E819F8120E030E040E251E40E9460151B
:10083000DC01CB01BC01CD010E949012DC01CB0197
:100840008B8305C08AE08B8302C08BE08B836C8135
:100850007D818E819F810E94FA16DC01CB012AE006
:1008600030E0B9010E94BC199D878C872C853D859D
:1008700033233CF48C859D85909581959F4F9D8772
:100880008C879C859A836C817D818E819F8120E0FD
:1008900030E040E050E00E940C161816CCF46C8159
:1008A0007D818E819F8120E030E040E251E40E9412
:1008B0006614DC01CB01BC01CD010E94FA16DC01FB
:1008C000CB012AE030E0B9010E94BC198B8718C027
:1008D0006C817D818E819F8120E030E040E251EC8F
:1008E0000E946614DC01CB01BC01CD010E94FA1606
:1008F000DC01CB012AE030E0B9010E94BC198B87F2
:100900002B8529838B81882F90E0FC01E050FF4FDD
:1009100030818A81882F90E0FC01E050FF4F908168
:1009200080910C01292F28238981882F90E0FC01D8
:10093000E050FF4F9081832F622F492F0E94E901E1
:10094000C4C06C817D818E819F8120E030E040E2D7
:1009500051E40E943C16882364F46C817D818E8171
:100960009F8120E030E040E050E00E946C16882338
:100970001CF431E03C8BAAC06C817D818E819F810B
:100980000E949012DC01CB018B836C817D818E8172
:100990009F8120E030E040E050E00E940C161816E5
:1009A000CCF46C817D818E819F8120E030E040E23B
:1009B00051E40E946614DC01CB01BC01CD010E9410
:1009C000FA16DC01CB012AE030E0B9010E94BC1923
:1009D0008A8718C06C817D818E819F8120E030E004
:1009E00040E251EC0E946614DC01CB01BC01CD0158
:1009F0000E94FA16DC01CB012AE030E0B9010E9426
:100A0000BC198A878A858A836C817D818E819F81CA
:100A100020E030E040E050E00E940C161816CCF4C4
:100A20006C817D818E819F8120E030E048EC52E432
:100A30000E946614DC01CB01BC01CD010E94FA16B4
:100A4000DC01CB012AE030E0B9010E94BC198987A2
:100A500018C06C817D818E819F8120E030E048EC60
:100A600052EC0E946614DC01CB01BC01CD010E9456
:100A7000FA16DC01CB012AE030E0B9010E94BC1972
:100A80008987998599838B81882F90E0FC01E050BC
:100A9000FF4F908180910C01292F28238A81882F74
:100AA00090E0FC01E050FF4F30818981882F90E079
:100AB000FC01E050FF4F9081822F632F492F0E944D
:100AC000E90103C021E02C8B01C01C8A8C89669649
:100AD0000FB6F894DEBF0FBECDBFCF91DF91089562
:100AE000DF93CF9300D000D000D0CDB7DEB781E048
:100AF00080931A0284E080931B0210921E028FE101
:100B000092E090931D0280931C0281E0898386E22B
:100B100092E09B838A83EAE1F2E0FD83EC83F5E0D7
:100B2000FE83EC81FD8100808C819D8101969D83F7
:100B30008C83EA81FB8100828A819B8101969B8361
:100B40008A839E8191509E83EE81EE2351F78981A5
:100B5000809325020E9478000E947A0D789410926A
:100B60001F0280911F02882F90E0A0E0B0E0BC013E
:100B7000CD010E944E17DC01CB01BC01CD0140E04C
:100B80000E942602ABE3B0E0EBE3F0E080818064FA
:100B90008C9380911F02803141F4ABE3B0E0EBE332
:100BA000F0E0808180618C9307C0ABE3B0E0EBE3C1
:100BB000F0E080818F7E8C9380911F02803241F41F
:100BC000ABE3B0E0EBE3F0E0808180628C9307C0A0
:100BD000ABE3B0E0EBE3F0E080818F7D8C9380911C
:100BE0001F02803441F4ABE3B0E0EBE3F0E080813E
:100BF00080688C93B6CFABE3B0E0EBE3F0E08081AC
:100C00008F778C93AECF1F920F920FB60F920090FA
:100C10005B000F9211242F933F934F935F936F9339
:100C20007F938F939F93AF93BF93EF93FF93DF9344
:100C3000CF93CDB7DEB7E0911702F0911802099576
:100C4000CF91DF91FF91EF91BF91AF919F918F91E4
:100C50007F916F915F914F913F912F910F900092F3
:100C60005B000F900FBE0F901F901895DF93CF93EE
:100C700000D000D0CDB7DEB789836A834B832C8345
:100C8000A7E3B0E0E7E3F0E0808187608C93A7E31F
:100C9000B0E0E7E3F0E08081877F8C93EDE2F0E065
:100CA0008981882F90E0880F991F880F991F880FDE
:100CB000991F282F20658A81882F90E0880F991F1F
:100CC000880F991F282B8B81882F90E0880F991F00
:100CD00082959295907F9827807F9827822B80839A
:100CE0008C81833031F08C81843019F08C81873095
:100CF00039F4ADE2B0E0EDE2F0E0808181608C9308
:100D00008C81853038F0ADE2B0E0EDE2F0E080813A
:100D100082608C938C81813031F08C81833019F02A
:100D20008C81853039F4AEE2B0E0EEE2F0E0808113
:100D300081608C930F900F900F900F90CF91DF9167
:100D40000895DF93CF9300D0CDB7DEB79A83898320
:100D5000A7E3B0E0E7E3F0E0808188608C93A7E34D
:100D6000B0E0E7E3F0E08081887F8C93EDE2F0E093
:100D700080E4808389819A81009769F089819A81D2
:100D80009093180280931702ADE2B0E0EDE2F0E03C
:100D9000808180688C930F900F90CF91DF910895A0
:100DA000DF93CF9300D00F92CDB7DEB789837B83DB
:100DB0006A83EFE2F0E089818083EEE2F0E08081F7
:100DC000882324F0809116028823B9F38A819B81BD
:100DD000009731F0EFE2F0E08081EA81FB818083CF
:100DE00080E00F900F900F90CF91DF910895DF93E7
:100DF000CF9300D000D000D0CDB7DEB79A838983DF
:100E0000E1E7F0E0108280E790E09C838B838981AA
:100E10009A819C01442737FD4095542F80E49FE13F
:100E2000A0E0B0E0BC01CD010E94CF19DA01C901F8
:100E300040979E838D83ED81FE81FF232CF48D816D
:100E40009E8101969E838D838D819E819595879548
:100E5000EB81FC818083E4E7F0E084E080832696E8
:100E60000FB6F894DEBF0FBECDBFCF91DF910895CE
:100E7000DF93CF9300D000D000D0CDB7DEB78C8306
:100E80006D838C81880F8C838D81882319F08C81F0
:100E900081608C831A82198241C0E4E7F0E084EA21
:100EA0008083E4E7F0E08081882324F080911602BB
:100EB0008823B9F3E1E7F0E08081887F8B838B8121
:100EC000883019F08B81803121F5E3E7F0E08C81E7
:100ED0008083E4E7F0E084E88083E4E7F0E0808169
:100EE000882324F0809116028823B9F3E1E7F0E02B
:100EF0008081887F8B838D81882319F48B81883151
:100F000031F08D81882329F08B81803411F41E8289
:100F100012C089819A8101969A83898389819A81F5
:100F200023E0883E92072CF480911602882309F46E
:100F3000B4CF81E08E838E8126960FB6F894DEBF03
:100F40000FBECDBFCF91DF910895DF93CF930F9266
:100F5000CDB7DEB78983898160E00E9438070F90A2
:100F6000CF91DF910895DF93CF9300D0CDB7DEB757
:100F70008983E3E7F0E089818083E4E7F0E084E8B7
:100F80008083E4E7F0E08081882324F080911602DA
:100F90008823B9F3E1E7F0E08081882F90E0887F33
:100FA00090708832910519F081E08A8301C01A821D
:100FB0008A810F900F90CF91DF910895DF93CF93A7
:100FC0000F92CDB7DEB78983898161E00E9438072F
:100FD0000F90CF91DF910895DF93CF9300D000D091
:100FE000CDB7DEB79A8389836B838B81882329F001
:100FF000E4E7F0E084E8808304C0E4E7F0E084EC18
:101000008083E4E7F0E08081882324F08091160259
:101010008823B9F380911602882319F081E08C832C
:1010200007C0E3E7F0E08081E981FA8180831C82D8
:101030008C810F900F900F900F90CF91DF910895BA
:10104000DF93CF93CDB7DEB7E4E7F0E084E98083A8
:10105000CF91DF9108951F920F920FB60F920090DB
:101060005B000F9211242F933F934F935F936F93E5
:101070007F938F939F93AF93BF93EF93FF93DF93F0
:10108000CF93CDB7DEB7EDE4F0E08EEF8083ECE4F4
:10109000F0E080E6808380912302909124022BE48B
:1010A0008030920729F4109224021092230209C082
:1010B00080912302909124020196909324028093C0
:1010C00023020E94AE08CF91DF91FF91EF91BF9173
:1010D000AF919F918F917F916F915F914F913F91D0
:1010E0002F910F9000925B000F900FBE0F901F90FA
:1010F0001895DF93CF9300D0CDB7DEB78983898170
:101100008A3020F48981805D8A8303C08981895C6B
:101110008A838A810F900F90CF91DF910895DF939A
:10112000CF93CDB7DEB7A7E5B0E0E7E5F0E080818B
:1011300084608C93EFE4F0E01082EEE4F0E081E074
:101140008083EDE4F0E08EEF8083ECE4F0E080E675
:1011500080830E94790ACF91DF9108951F93DF93D6
:10116000CF9300D0CDB7DEB783E392E00E94BD0EEF
:10117000909331028093300280913002909131023D
:101180008330910511F41A8279C0809130029091D8
:10119000310282309105C9F580913802182F1F70F5
:1011A000809138020E944509982F812F692F0E9453
:1011B000FB0989838981813069F40E946D0984E08B
:1011C00090E0909335028093340283E392E00E9492
:1011D0008C0D53C08981882359F483E090E090936B
:1011E00035028093340283E392E00E948C0D45C067
:1011F0008981823009F041C010924E0280E290E075
:101200000E942C0D0E94790A38C080913002909182
:1012100031028130910551F4809134029091350270
:101220008430910519F40E94790A27C08091300218
:101230009091310281309105A9F48091340290910E
:1012400035028330910571F480913802182F1F7098
:10125000809138020E944509982F812F692F0E94A2
:101260009C090BC08091300290913102009719F4D3
:101270000E94790A02C00E94790A1A828A810F901C
:101280000F90CF91DF911F910895DF93CF9300D0FE
:10129000CDB7DEB78A838A81882F90E08073907003
:1012A0009595879595958795959587959595879526
:1012B00089838981823018F482E0898308C089811A
:1012C000823019F484E0898302C088E089838981AF
:1012D0000F900F90CF91DF910895DF93CF9300D0BF
:1012E000CDB7DEB785E292E09A838983809132029E
:1012F0008823ECF0A0913602B0913702809132023F
:10130000282F332727FD309549815A81C901880F3D
:10131000991F880F991F820F931F840F951FFC013F
:1013200033968081918112969C938E9311970F90A2
:101330000F90CF91DF910895DF93CF9300D000D02D
:1013400000D0CDB7DEB78D836E8385E292E09A83BD
:1013500089838D818C3009F445C0809132028823C5
:101360000CF440C01C823AC080913202282F3327EF
:1013700027FD309549815A81C901880F991F880F2F
:10138000991F820F931F840F951FFC0133962081B4
:1013900031818C81882F90E0D901A80FB91FE0918D
:1013A0003602F0913702218132818C81882F90E0C2
:1013B000F901E80FF91F80818C93E0913602F091DA
:1013C0003702218132818C81882F90E0F901E80F6A
:1013D000F91F80818B838C818F5F8C839C818E81B0
:1013E000981710F226960FB6F894DEBF0FBECDBF49
:1013F000CF91DF910895DF93CF93CDB7DEB72797D5
:101400000FB6F894DEBF0FBECDBF8C836D8385E22F
:1014100092E09A8389838C818C3009F457C01B82B7
:1014200046C08B81282F30E049815A81C901880F3D
:10143000991F880F991F820F931F840F951FFC011E
:10144000319690818C81981779F58B81282F30E027
:1014500049815A81C901880F991F880F991F820FEE
:10146000931F840F951FFC01329690818D819817F0
:10147000D9F48B81809332028B81882F90E049814F
:101480005A819C012F5F3F4FC901880F991F880F18
:10149000991F820F931FFA01E80FF91F8081282FEF
:1014A00030E03F832E831AC08B818F5F8B83E9816D
:1014B000FA8190818B81891708F4B3CF8FEF8093E5
:1014C000320282E090E09F838E8308C08D81883055
:1014D00019F48FEF809332021F821E828E819F81CA
:1014E00027960FB6F894DEBF0FBECDBFCF91DF9128
:1014F0000895DF93CF93CDB7DEB783E090E090936C
:1015000035028093340288E392E09093370280930F
:1015100036028BE392E090933A0280933902109264
:10152000380283E392E00E948C0DCF91DF91089501
:101530001F920F920FB60F9200905B000F92112432
:101540002F933F934F935F936F937F938F939F93CB
:10155000AF93BF93EF93FF93DF93CF9300D000D06F
:1015600000D0CDB7DEB780914E02282F30E03E8309
:101570002D838D819E818330910509F400C12D81D9
:101580003E81243031058CF48D819E81813091051E
:1015900009F45DC02D813E81223031050CF08CC0F4
:1015A0008D819E810097D1F00AC22D813E81253028
:1015B000310509F417C18D819E81853091050CF4A8
:1015C0004AC12D813E812630310509F4C9C18D8182
:1015D0009E818730910509F494C1F1C1ECE9F0E0F6
:1015E0008081882389F589E190E00E942C0D80910B
:1015F0005202282F30E03C832B838B819C818130E9
:101600009105F4F02B813C81233031054CF08B8126
:101610009C8185309105A4F481E080934E02D5C170
:10162000ECE9F0E085E580830E94930F882F90E03D
:10163000909344028093430281E080934E02C5C19F
:1016400081E080934E02C1C110924E02BEC1ECE90E
:10165000F0E080818535D9F480915202882F90E0A6
:1016600001978230910578F480914D020E94CD0F50
:1016700080935102ECE9F0E080915102808382E096
:1016800080934E02A2C183E080934E029EC11092CD
:101690004E0288E080934F0280915202882F90E0A2
:1016A00001978230910520F481E0809350028DC132
:1016B00088E08093500289C1EBE9F0E08081882FB7
:1016C00090E080719070009769F081E08093500203
:1016D00088E080934F0210924E0280E290E00E94D8
:1016E0002C0D73C1ECE9F0E09081809151029817C4
:1016F000C9F580915202282F30E03A8329838981ED
:101700009A818130910531F029813A812230310569
:10171000E9F05BC180914D020E94FE0C809354025F
:1017200080915402882309F450C1ECE9F0E08091E3
:101730004502808384E080934E0280915402815060
:101740008093540281E0809353023FC185E08093EF
:101750004E021092530280914D020E94FE0C809323
:10176000540233C110924E0281E08093500288E00F
:1017700080934F0280E290E00E942C0D26C1ECE99C
:10178000F0E0808180934D0280914D020E94CD0F48
:10179000982F80914D02981749F4EBE9F0E0808191
:1017A000882F90E080719070009769F084E08093BA
:1017B000500288E080934F0210924E0280E290E047
:1017C0000E942C0D02C184E080934F0285E080933B
:1017D0004E021092530280914D020E94FE0C8093A3
:1017E0005402F3C0EBE9F0E08081882F90E0807133
:1017F0009070009769F081E08093500288E08093B8
:101800004F0210924E0280E290E00E942C0DDDC04B
:1018100080915302882F90E0ECE9F0E02081FC01F8
:10182000EB5BFD4F2083809153028F5F80935302C7
:101830009091530280915402981709F0C6C00E94FB
:10184000930F882F90E0909344028093430287E0A7
:1018500080934E02BAC0EBE9F0E08081882F90E0DF
:1018600080719070009769F081E08093500288E069
:1018700080934F0210924E0280E290E00E942C0D65
:10188000A4C080915302882F90E00197FC01EB5B8C
:10189000FD4F9081ECE9F0E08081981729F5809167
:1018A00054028823B1F0ACE9B0E080915302882F54
:1018B00090E0FC01EB5BFD4F80818C9380915402A2
:1018C000815080935402809153028F5F8093530222
:1018D0007CC0ECE9F0E08091430290914402808367
:1018E00086E080934E0271C081E08093500288E0D0
:1018F00080934F0210924E0280E290E00E942C0DE5
:1019000064C0EBE9F0E08081882F90E080719070F6
:10191000009739F081E08093500288E080934F0275
:1019200018C080914302909144029C013070ECE910
:10193000F0E08081882F90E02817390739F082E0A5
:101940008093500288E080934F0203C081E080932F
:101950004F0210924E0280E290E00E942C0D35C0A2
:10196000EBE9F0E08081882F90E080719070009723
:1019700039F081E08093500288E080934F0218C0D4
:1019800080914302909144029C013070ECE9F0E0B8
:101990008081882F90E02817390739F082E0809302
:1019A000500288E080934F0203C082E080934F0290
:1019B00010924E0280E290E00E942C0D06C0109220
:1019C0004E0280E290E00E942C0D2696DEBFCDBF35
:1019D000CF91DF91FF91EF91BF91AF919F918F9147
:1019E0007F916F915F914F913F912F910F90009256
:1019F0005B000F900FBE0F901F901895DF93CF9351
:101A00000F92CDB7DEB789838981882F90E08073EC
:101A100090709595879595958795959587959595CA
:101A200087958093540280915402823020F482E0A2
:101A3000809354020BC080915402823021F484E0E0
:101A40008093540203C088E0809354028091540232
:101A50000F90CF91DF910895DF93CF9300D0CDB752
:101A6000DEB79A838983E9E9F0E089818083E8E938
:101A7000F0E089819A81892F992780830F900F90B8
:101A8000CF91DF910895DF93CF93CDB7DEB785E295
:101A900090E00E942C0DECE9F0E0108280E1809350
:101AA0004F0281E080935202CF91DF910895DF933E
:101AB000CF93CDB7DEB785E290E00E942C0DECE924
:101AC000F0E0108280E180934F0282E08093520226
:101AD000CF91DF910895DF93CF93CDB7DEB7EDE9D6
:101AE000F0E086E08083EAE9F0E088E98083CF9146
:101AF000DF910895DF93CF93CDB7DEB70E946B0DD2
:101B000080E290E00E942C0D10924F020E948F08FC
:101B100081E0CF91DF910895DF93CF93CDB7DEB70A
:101B200027970FB6F894DEBF0FBECDBF9D838C8381
:101B3000EC81FD81818192818430910509F060C042
:101B4000EC81FD818081813009F05AC0EC81FD81FA
:101B50000380F481E02D808182958F700E94600F58
:101B60008983109254021A821EC080915402482F19
:101B700050E0EC81FD810380F481E02D21813281F0
:101B80008A81882F90E0F901E80FF91F8081FA011E
:101B9000EB5BFD4F8083809154028F5F80935402F2
:101BA0008A818F5F8A839A8189819817F0F280E217
:101BB00090E00E942C0D89E190E00E942C0DECE950
:101BC000F0E080914502808380E180934F0283E0C2
:101BD0008093520284E080934E0281E0809353020E
:101BE0000E94930F882F90E09093440280934302C9
:101BF0008091540281508093540281E08B83B3C062
:101C000080914F02882F90E080719070009711F0C2
:101C10001B82A9C081E08B8310924F021092500268
:101C2000EC81FD81818192819F838E838E819F8152
:101C30008330910509F46DC08E819F8184309105B8
:101C400060F48E819F8181309105A1F08E819F810A
:101C50008230910509F44EC086C08E819F81853007
:101C6000910509F471C08E819F818630910509F438
:101C70005BC079C0EC81FD8181E08083EC81FD81D6
:101C80000380F481E02D808182958F700E94600F27
:101C90008983109254021A821EC080915402482FE8
:101CA00050E0EC81FD810380F481E02D21813281BF
:101CB0008A81882F90E0F901E80FF91F8081FA01ED
:101CC000EB5BFD4F8083809154028F5F80935402C1
:101CD0008A818F5F8A839A8189819817F0F2EC81DB
:101CE000FD810380F481E02D808180934D020E946C
:101CF000430D39C0EC81FD8181E08083EC81FD8161
:101D00000380F481E02D808180934D020E94570D65
:101D10002AC0EC81FD8181E0808380E180934F02C5
:101D200084E0809352021FC0EC81FD8181E08083BA
:101D300089E190E00E942C0DECE9F0E080E88083DE
:101D400082E080934F020FC0EC81FD8181E08083AF
:101D500089E190E00E942C0DECE9F0E080E88083BE
:101D600082E080934F028B8127960FB6F894DEBFF6
:101D70000FBECDBFCF91DF910895DF93CF9300D0F9
:101D800000D000D0CDB7DEB79E838D83ED81FE817C
:101D90008081882319F41C821B8287C080914F02A6
:101DA0008F718A838A81823051F4ED81FE811082A5
:101DB00010924F0281E090E09C838B8376C08A81F1
:101DC0008130D9F5ED81FE81108210924F02ED81B4
:101DD000FE810380F481E02D808182958F700E94C6
:101DE000600F8A831092540219821EC0ED81FE8119
:101DF0000380F481E02D218132818981882F90E058
:101E0000D901A80FB91F80915402882F90E0FC01DE
:101E1000EB5BFD4F80818C93809154028F5F8093A8
:101E2000540289818F5F898399818A819817F0F2A2
:101E300081E090E09C838B8338C08A818430A1F458
:101E4000ED81FE8181E0808310924F02ED81FE8161
:101E50000380F481E02D80914D028F73808382E0B6
:101E600090E09C838B8321C08A81883081F4ED814E
:101E7000FE81108210924F0280915002882F90E0D4
:101E800080549F4F9C838B83109250020EC08A8196
:101E9000803129F483E090E09C838B8306C080919D
:101EA0004E02882311F41C821B828B819C81269612
:101EB0000FB6F894DEBF0FBECDBFCF91DF9108956E
:101EC000DF93CF9300D0CDB7DEB78A838A8182308B
:101ED00018F482E0898308C08A81823019F484E092
:101EE000898302C088E0898389810F900F90CF9108
:101EF000DF910895DF93CF9300D0CDB7DEB78A830B
:101F00008A81833010F4198208C08A81853018F4E0
:101F100082E0898302C083E0898389810F900F90DA
:101F2000CF91DF910895DF93CF9300D00F92CDB77B
:101F3000DEB71B821A82198223C08981882F90E024
:101F4000FC01EB5BFD4F8081282F30E08A819B8173
:101F5000820F931F9B838A838A819B8180709170FB
:101F6000292F33278A819B81820F931F9B838A832A
:101F70008A819B8190709B838A8389818F5F89830B
:101F80009091540289818917C0F28A8180950F90BF
:101F90000F900F90CF91DF910895DF93CF9300D0F2
:101FA00000D0CDB7DEB78C838C818F738983898114
:101FB000282F21708981882F90E0827090709595EC
:101FC000879528278981882F90E084709070959557
:101FD00087959595879528278981882F90E080712E
:101FE00090709595879595958795959587959595F5
:101FF000879582278B838981882F90E082709070EB
:102000009C01359527958981882F90E08870907084
:10201000959587959595879595958795282739273F
:102020008981882F90E0807190709595879595951E
:10203000879595958795959587952827392789813F
:10204000882F90E0807290709595879595958795EB
:102050009595879595958795959587951A822817D3
:10206000390711F481E08A838A81882F90E0969560
:10207000982F882797958795282F8B81882F90E018
:102080008170907000249695879507949695879512
:102090000794982F802D922F982B8981892B8983E3
:1020A00089810F900F900F900F90CF91DF9108953D
:1020B000DF93CF930F92CDB7DEB78983E2E5F0E0EF
:1020C00089818083E3E5F0E082E08083A7E5B0E0EA
:1020D000E7E5F0E0808181608C930F90CF91DF91F4
:1020E0000895DF93CF93CDB7DEB7A7E5B0E0E7E57E
:1020F000F0E080818E7F8C93E3E5F0E01082CF9159
:10210000DF910895DF93CF9300D0CDB7DEB79A83E8
:102110008983EFE4F0E01082EEE4F0E081E0808378
:10212000ECE4F0E089819A81918380830F900F9095
:10213000CF91DF910895DF93CF93CDB7DEB7A7E5B9
:10214000B0E0E7E5F0E080818B7F8C93EFE4F0E096
:102150001082EEE4F0E01082CF91DF910895DF93DA
:10216000CF93CDB7DEB7AEE4B0E0EEE4F0E080812F
:1021700080688C93AEE4B0E0EEE4F0E080818F7B89
:102180008C93A7E5B0E0E7E5F0E0808180628C9376
:10219000CF91DF910895DF93CF93CDB7DEB7A7E559
:1021A000B0E0E7E5F0E080818F7D8C93CF91DF9107
:1021B0000895DF93CF93CDB7DEB7ADE7B0E0EDE79D
:1021C000F0E0808184608C93EBE8F0E01082EAE834
:1021D000F0E081E08083ECE7F0E08FEF8083E9E8D6
:1021E000F0E01082E8E8F0E01082CF91DF910895EE
:1021F000DF93CF93CDB7DEB7AAE8B0E0EAE8F0E02E
:10220000808180688C93AAE8B0E0EAE8F0E0808101
:102210008F7B8C93ADE7B0E0EDE7F0E080818062EA
:102220008C93CF91DF910895DF93CF93CDB7DEB735
:10223000ADE7B0E0EDE7F0E080818F7D8C93EAE8D8
:10224000F0E01082CF91DF910895DF93CF93CDB767
:10225000DEB7EAE8F0E01082ADE7B0E0EDE7F0E0ED
:1022600080818F7D8C93ECE7F0E08FEF8083CF91BE
:10227000DF910895DF93CF9300D0CDB7DEB79A8377
:102280008983EAE2F0E01082E0E9F0E089819A8156
:10229000892F99278083E9E2F0E089818083EBE24E
:1022A000F0E080E28083E5E9F0E08EE08083EAE21E
:1022B000F0E088E180830F900F90CF91DF91089537
:1022C000DF93CF9300D0CDB7DEB79A838983EAE955
:1022D000F0E01082E8E9F0E089819A81892F99275E
:1022E0008083E9E9F0E089818083EBE9F0E080E236
:1022F0008083EDE9F0E08EE08083EAE9F0E088E1B8
:1023000080830F900F90CF91DF910895DF93CF934B
:102310000F92CDB7DEB7EBE2F0E08081882314F0B6
:10232000198204C0ECE2F0E08081898389810F90FA
:10233000CF91DF910895DF93CF930F92CDB7DEB7A2
:10234000EBE9F0E08081882314F0198204C0ECE905
:10235000F0E08081898389810F90CF91DF9108958A
:10236000DF93CF930F92CDB7DEB78983EBE2F0E036
:102370008081882F90E0807290700097B9F3ECE232
:10238000F0E0898180830F90CF91DF910895DF93F2
:10239000CF930F92CDB7DEB78983EBE9F0E0808170
:1023A000882F90E0807290700097B9F3ECE9F0E02C
:1023B000898180830F90CF91DF910895DF93CF9330
:1023C00000D0CDB7DEB79A8389830BC0E981FA814B
:1023D000208189819A8101969A838983822F0E9424
:1023E000B011E981FA818081882381F70F900F90E5
:1023F000CF91DF910895DF93CF9300D0CDB7DEB7B3
:102400009A8389830BC0E981FA81208189819A812D
:1024100001969A838983822F0E94C711E981FA81EC
:102420008081882381F70F900F90CF91DF910895DD
:10243000DF93CF9300D0CDB7DEB79A8389830BC0EB
:10244000E981FA81208189819A8101969A83898321
:10245000822F0E94B011E981FA818081882381F75F
:102460000F900F90CF91DF910895DF93CF9300D01D
:10247000CDB7DEB79A8389830BC0E981FA812081C9
:1024800089819A8101969A838983822F0E94C7113C
:10249000E981FA818081882381F70F900F90CF9195
:1024A000DF910895DF93CF93CDB7DEB7EDE9F0E08C
:1024B00086E0808380E09BE40E942C0DAAE9B0E0D6
:1024C000EAE9F0E0808188618C9381E0CF91DF912F
:1024D0000895DF93CF930F92CDB7DEB78983EBE9F1
:1024E000F0E08081882F90E0807290700097B9F3BF
:1024F000ECE9F0E08981808389810F90CF91DF91B1
:102500000895DF93CF93CDB7DEB7EBE9F0E080819C
:102510008823DCF7ECE9F0E08081CF91DF9108952A
:10252000EF92FF920F931F937B018C0120E030E02C
:1025300040E05FE40E943C1688238CF0C801B7019C
:1025400020E030E040E05FE40E9408140E94FA16A8
:102550009B01AC01205030404040504806C0C801AB
:10256000B7010E94FA169B01AC01B901CA011F9183
:102570000F91FF90EF900895A0E0B0E0E2ECF2E15F
:102580000C94051ADC012B01FA019C91923008F49D
:1025900039C1EB018881823008F433C1943069F489
:1025A000843009F02FC111969C9111978981981759
:1025B00009F428C1ADE0B1E025C1843009F421C19E
:1025C0008230A9F4923009F01DC19A01AD0188E072
:1025D000EA010990AE01E90109929E018150C1F71B
:1025E000E201898111969C918923818308C19230EF
:1025F00009F407C112962D903C901397EB018A8144
:102600009B811496AD90BD90CD90DC901797EC8097
:10261000FD800E811F819101281B390BB90137FF05
:1026200004C066277727621B730B603271050CF0BC
:1026300061C0121613066CF537014801062E04C05E
:1026400096948794779467940A94D2F721E030E0C7
:1026500040E050E004C0220F331F441F551F6A950D
:10266000D2F721503040404050402E213F2140239E
:102670005123211531054105510521F021E030E0BC
:1026800040E050E079018A01E628F7280829192955
:102690003CC0232BD1F1260E371E35014601062EF4
:1026A00004C096948794779467940A94D2F721E0B3
:1026B00030E040E050E004C0220F331F441F551F9C
:1026C0006A95D2F721503040404050402A213B21AA
:1026D0004C215D21211531054105510521F021E0F5
:1026E00030E040E050E059016A01A628B728C82828
:1026F000D9280BC0821593052CF01C01AA24BB24F9
:10270000650103C0EE24FF24870111969C91D2013C
:1027100011968C91981709F445C0992339F0A801B6
:1027200097012A193B094C095D0906C0A6019501CC
:102730002E193F09400B510B57FD08C011823382FF
:10274000228224833583468357831DC081E08183A1
:102750003382228288279927DC01821B930BA40BEA
:10276000B50B84839583A683B7830DC0220F331FD7
:10277000441F551F24833583468357838281938169
:102780000197938382832481358146815781DA01C1
:10279000C9010197A109B1098F5F9F4FAF4FBF4397
:1027A00028F30BC0918333822282EA0CFB1C0C1DA0
:1027B0001D1DE482F5820683178383E080832481D4
:1027C00035814681578157FF1AC0C901AA2797FD55
:1027D000A095BA2F81709070A070B07056954795F3
:1027E00037952795822B932BA42BB52B8483958328
:1027F000A683B78382819381019693838283DF01CD
:1028000001C0D201CD01CDB7DEB7E2E10C94211AAF
:10281000A0E2B0E0EEE0F4E10C94111A69837A834F
:102820008B839C832D833E834F835887E9E0EE2E74
:10283000F12CEC0EFD1ECE010196B7010E94EB18A3
:102840008E010F5E1F4FCE010596B8010E94EB1856
:102850008A8991E089278A8BC701B801AE01475E5A
:102860005F4F0E94BC120E941618A096E6E00C94DE
:102870002D1AA0E2B0E0EFE3F4E10C94111A6983A1
:102880007A838B839C832D833E834F835887F9E023
:10289000EF2EF12CEC0EFD1ECE010196B7010E9429
:1028A000EB188E010F5E1F4FCE010596B8010E94F6
:1028B000EB18C701B801AE01475E5F4F0E94BC1222
:1028C0000E941618A096E6E00C942D1AA0E2B0E043
:1028D000ECE6F4E10C94051A69837A838B839C837C
:1028E0002D833E834F835887CE010196BE01675FDB
:1028F0007F4F0E94EB18CE010596BE016F5E7F4FA1
:102900000E94EB189985923088F089898230C8F04E
:10291000943019F4823051F404C0843029F4923098
:1029200081F48DE091E0C6C0923049F420E09A85B0
:102930008A89981321E02A87CE010996BBC082308C
:1029400049F420E09A858A89981321E02A8BCE01E8
:102950004196B0C02D843E844F8458886D887E880F
:102960008F88988CEE24FF248701AA24BB2465015C
:1029700040E050E060E070E0E0E0F0E0C101817034
:102980009070892BE9F0E60CF71C081D191D9A01BF
:10299000AB012A0D3B1D4C1D5D1D80E090E0A0E0C9
:1029A000B0E0E614F7040805190520F481E090E092
:1029B000A0E0B0E0BA01A901480F591F6A1F7B1FB0
:1029C000AA0CBB1CCC1CDD1C97FE08C081E090E06B
:1029D000A0E0B0E0A82AB92ACA2ADB2A3196E03260
:1029E000F10549F0660C771C881C991C5694479495
:1029F00037942794C3CFFA85EA892B893C898B8544
:102A00009C85280F391F2E5F3F4F17C0CA01817068
:102A10009070892B61F016950795F794E79480E004
:102A200090E0A0E0B0E8E82AF92A0A2B1B2B769563
:102A30006795579547952F5F3F4F77FDE7CF0CC0C0
:102A4000440F551F661F771F17FD4160EE0CFF1CDA
:102A5000001F111F21503040403090E0590790E096
:102A6000690790E4790760F32B8F3C8FDB01CA0183
:102A70008F779070A070B07080349105A105B1057A
:102A800061F447FD0AC0E114F1040105110529F0C4
:102A9000405C5F4F6F4F7F4F40781A8EFE1711F0EA
:102AA00081E08A8F4D8F5E8F6F8F78A383E0898F4F
:102AB000CE0149960E941618A096E2E10C94211AC4
:102AC000A8E1B0E0E6E6F5E10C940D1A69837A839B
:102AD0008B839C832D833E834F835887B9E0EB2EF5
:102AE000F12CEC0EFD1ECE010196B7010E94EB18F1
:102AF0008E010F5E1F4FCE010596B8010E94EB18A4
:102B00002985223008F47EC03989323010F4B801AA
:102B10007CC08A859A8989278A87243011F02230DF
:102B200031F4231709F06EC06DE071E06EC03430EF
:102B300039F41D861E861F86188A1C861B8604C0D3
:102B4000323021F484E08987B7015FC02B853C8552
:102B50008B899C89281B390B3C872B87ED84FE844D
:102B60000F851889AD88BE88CF88D88CEA14FB04FD
:102B70000C051D0540F4EE0CFF1C001F111F215019
:102B800030403C872B8720E030E040E050E080E0A0
:102B900090E0A0E0B0E460E070E0EA14FB040C0513
:102BA0001D0540F0282B392B4A2B5B2BEA18FB081C
:102BB0000C091D09B695A79597958795EE0CFF1CF6
:102BC000001F111F6F5F7F4F6F31710531F7DA0101
:102BD000C9018F779070A070B07080349105A10505
:102BE000B10561F427FD0AC0E114F10401051105E6
:102BF00029F0205C3F4F4F4F5F4F20782D873E8755
:102C00004F87588BBE01675F7F4FCB010E9416181C
:102C10006896EAE00C94291AA8E1B0E0E2E1F6E156
:102C20000C94111A69837A838B839C832D833E8352
:102C30004F83588789E0E82EF12CEC0EFD1ECE0163
:102C40000196B7010E94EB188E010F5E1F4FCE0157
:102C50000596B8010E94EB188985823040F0898979
:102C6000823028F0C701B8010E94631901C08FEFBC
:102C70006896E6E00C942D1AA8E1B0E0E2E4F6E1F3
:102C80000C94111A69837A838B839C832D833E83F2
:102C90004F83588789E0E82EF12CEC0EFD1ECE0103
:102CA0000196B7010E94EB188E010F5E1F4FCE01F7
:102CB0000596B8010E94EB188985823040F0898919
:102CC000823028F0C701B8010E94631901C08FEF5C
:102CD0006896E6E00C942D1AA8E1B0E0E2E7F6E190
:102CE0000C94111A69837A838B839C832D833E8392
:102CF0004F83588789E0E82EF12CEC0EFD1ECE01A3
:102D00000196B7010E94EB188E010F5E1F4FCE0196
:102D10000596B8010E94EB188985823040F08989B8
:102D2000823028F0C701B8010E94631901C081E018
:102D30006896E6E00C942D1AA8E0B0E0E2EAF6E12D
:102D40000C940E1A9B01AC0183E08983DA01C9015E
:102D50008827B7FD83959927AA27BB27B82E211569
:102D600031054105510519F482E089833AC0882371
:102D7000A9F0203080E0380780E0480780E8580755
:102D800029F460E070E080E09FEC30C0EE24FF2486
:102D90008701E21AF30A040B150B02C079018A01BC
:102DA0008EE1C82ED12CDC82CB82ED82FE820F8395
:102DB0001887C801B7010E94C7170197181619068E
:102DC00084F4082E04C0EE0CFF1C001F111F0A948F
:102DD000D2F7ED82FE820F831887C81AD90ADC82E7
:102DE000CB82BA82CE0101960E9416182896E9E09D
:102DF0000C942A1AACE0B0E0E0E0F7E10C94151A6C
:102E000069837A838B839C83CE010196BE016B5FBD
:102E10007F4F0E94EB188D81823061F1823050F13A
:102E2000843021F48E81882351F12EC02F81388582
:102E300037FD20C06E812F3131051CF06623F9F07B
:102E400023C08EE190E0821B930B29853A854B8548
:102E50005C8504C056954795379527958A95D2F796
:102E60006623B1F050954095309521953F4F4F4FD7
:102E70005F4F0EC020E030E040E050E009C02FEF8F
:102E80003FEF4FEF5FE704C020E030E040E050E864
:102E9000B901CA012C96E2E00C94311AA8E0B0E026
:102EA000E4E5F7E10C940D1A7B018C0161157105C5
:102EB0008105910519F482E0898360C083E08983EC
:102EC0008EE1C82ED12CDC82CB82ED82FE820F8374
:102ED0001887C801B7010E94C717FC013197F7FF97
:102EE0003BC0222733272E1B3F0B57016801022EC0
:102EF00004C0D694C794B794A7940A94D2F740E03C
:102F000050E060E070E081E090E0A0E0B0E004C05C
:102F1000880F991FAA1FBB1F2A95D2F70197A109F5
:102F2000B1098E219F21A023B1230097A105B105EE
:102F300021F041E050E060E070E04A295B296C2913
:102F40007D294D835E836F8378878EE190E08E1BB1
:102F50009F0B9C838B8312C0309781F00E2E04C090
:102F6000EE0CFF1C001F111F0A94D2F7ED82FE82A7
:102F70000F831887CE1ADF0ADC82CB821A82CE0139
:102F800001960E9416182896EAE00C94291AEF92EE
:102F9000FF920F931F937B018C0180E0E81680E085
:102FA000F80681E0080780E0180788F48FEFE8163C
:102FB000F1040105110531F028F088E090E0A0E06F
:102FC000B0E017C080E090E0A0E0B0E012C080E088
:102FD000E81680E0F80680E0080781E0180728F08E
:102FE00088E190E0A0E0B0E004C080E190E0A0E0E3
:102FF000B0E020E230E040E050E0281B390B4A0B03
:103000005B0B04C016950795F794E7948A95D2F761
:10301000F701EB5EFE4F8081281B31094109510900
:10302000C9011F910F91FF90EF900895DF92EF92E9
:10303000FF920F931F93FC01E480F58006811781B6
:10304000D1808081823048F480E090E0A0E1B0E05F
:10305000E82AF92A0A2B1B2BA5C0843009F49FC04B
:10306000823021F4EE24FF24870105C0E114F1042D
:103070000105110519F4E0E0F0E096C0628173816A
:103080009FEF623879070CF05BC022E83FEF261B08
:10309000370B2A3131052CF020E030E040E050E0E1
:1030A0002AC0B801A701022E04C0769567955795EE
:1030B00047950A94D2F781E090E0A0E0B0E004C028
:1030C000880F991FAA1FBB1F2A95D2F70197A10944
:1030D000B1098E219F21A023B1230097A105B1053D
:1030E00021F081E090E0A0E0B0E09A01AB01282B54
:1030F000392B4A2B5B2BDA01C9018F779070A070B6
:10310000B07080349105A105B10539F427FF09C0DD
:10311000205C3F4F4F4F5F4F04C0215C3F4F4F4FEC
:103120005F4FE0E0F0E02030A0E03A07A0E04A077F
:10313000A0E45A0710F0E1E0F0E079018A0127C02D
:103140006038710564F5FB01E158FF4FD801C701F4
:103150008F779070A070B07080349105A105B10593
:1031600039F4E7FE0DC080E490E0A0E0B0E004C0D8
:103170008FE390E0A0E0B0E0E80EF91E0A1F1B1FED
:1031800017FF05C016950795F794E794319687E0E9
:1031900016950795F794E7948A95D1F705C0EE2424
:1031A000FF248701EFEFF0E06E2F679566276795A4
:1031B000902F9F77D794DD24D7948E2F8695492F13
:1031C000462B582F5D29B701CA011F910F91FF901F
:1031D000EF90DF900895FC01DB0140815181228155
:1031E000622F6F7770E0221F2227221F9381892F81
:1031F000880F822B282F30E0991F9927991F11964D
:103200009C93119721153105A9F5411551056105CB
:10321000710511F482E037C082E89FEF13969C930A
:103220008E9312979A01AB0167E0220F331F441F60
:10323000551F6A95D1F783E08C930DC0220F331F81
:10324000441F551F12968D919C91139701971396C9
:103250009C938E931297203080E0380780E04807D7
:1032600080E4580758F314962D933D934D935C9347
:10327000179708952F3F310579F4411551056105E0
:10328000710519F484E08C93089564FF03C081E014
:103290008C9312C01C9210C02F57304013963C9351
:1032A0002E93129783E08C9387E0440F551F661F7F
:1032B000771F8A95D1F7706414964D935D936D9343
:1032C0007C93179708951F93DC01FB019C9192302A
:1032D00008F447C08081823008F443C0943051F430
:1032E00011961C91843099F58181682F70E0611BE3
:1032F00071093FC0843021F0923031F48230B9F14D
:103300008181882389F12DC011961C9111978230FB
:10331000F1F081811817D9F412962D913C911397F1
:10332000828193818217930794F028173907BCF0A4
:1033300014968D919D910D90BC91A02D2481358185
:1033400046815781281739074A075B0718F411236C
:1033500041F00AC082179307A407B50740F4112370
:1033600019F061E070E005C06FEF7FEF02C060E030
:1033700070E0CB011F91089597FB092E07260AD014
:1033800077FD04D02ED006D000201AF470956195F8
:103390007F4F0895F6F7909581959F4F0895A1E28C
:1033A0001A2EAA1BBB1BFD010DC0AA1FBB1FEE1FBF
:1033B000FF1FA217B307E407F50720F0A21BB30B0A
:1033C000E40BF50B661F771F881F991F1A9469F786
:1033D00060957095809590959B01AC01BD01CF01E2
:1033E0000895AA1BBB1B51E107C0AA1FBB1FA6174C
:1033F000B70710F0A61BB70B881F991F5A95A9F79E
:1034000080959095BC01CD0108952F923F924F92E7
:103410005F926F927F928F929F92AF92BF92CF9264
:10342000DF92EF92FF920F931F93CF93DF93CDB76D
:10343000DEB7CA1BDB0B0FB6F894DEBF0FBECDBFE5
:1034400009942A88398848885F846E847D848C84B6
:103450009B84AA84B984C884DF80EE80FD800C81BF
:103460001B81AA81B981CE0FD11D0FB6F894DEBFA2
:0C3470000FBECDBFED010895F894FFCF12
:10347C0028F91C58C94A0AF80848FFDFF700000071
:10348C000000000000000102020303030304040413
:10349C0004040404040505050505050505050505D5
:1034AC0005050505050606060606060606060606B5
:1034BC0006060606060606060606060606060606A0
:1034CC000606060606070707070707070707070785
:1034DC000707070707070707070707070707070770
:1034EC000707070707070707070707070707070760
:1034FC000707070707070707070707070707070750
:10350C000707070707080808080808080808080834
:10351C00080808080808080808080808080808081F
:10352C00080808080808080808080808080808080F
:10353C0008080808080808080808080808080808FF
:10354C0008080808080808080808080808080808EF
:10355C0008080808080808080808080808080808DF
:10356C0008080808080808080808080808080808CF
:10357C0008080808080808080808080808080808BF
:06358C0008080808080011
:00000001FF
