:100000000C9446000C9465000C9465000C946500FB
:100010000C9465000C9465000C9465000C946500CC
:100020000C9465000C9465000C9467000C946500BA
:100030000C9465000C9465000C94310C0C946500D4
:100040000C9465000C94BB090C9465000C9465003D
:100050000C9465000C9465000C9465000C9465008C
:100060000C9465000C9465000C9465000C9465007C
:100070000C9465000C9465000C94790C0C9465004C
:100080000C9465000C9465000C94650011241FBE4F
:10009000CFEFD0E1DEBFCDBF12E0A0E0B1E0EAE0FB
:1000A000F7E400E00BBF02C007900D92A631B10744
:1000B000D9F712E0A6E1B2E001C01D92A238B10763
:1000C000E1F70E94431A0C9484230C9400001F92C1
:1000D0000F920FB60F9211242F933F934F935F937C
:1000E0006F937F938F939F93AF93BF93EF93FF9300
:1000F000CF93DF93CDB7DEB70E94091885E290E079
:100100000E94680F10922A0280E280932C0288E0FD
:1001100080932B02DF91CF91FF91EF91BF91AF912F
:100120009F918F917F916F915F914F913F912F910F
:100130000F900FBE0F901F901895CF93DF93CDB700
:10014000DEB7AAE3B0E0EAE3F0E0808181608C935F
:10015000ABE3B0E0EBE3F0E0808181608C93AAE355
:10016000B0E0EAE3F0E080818D7F8C93AAE3B0E019
:10017000EAE3F0E080818B7F8C93AAE3B0E0EAE3CE
:10018000F0E08081877F8C93AAE3B0E0EAE3F0E0BF
:10019000808180618C93AAE3B0E0EAE3F0E08081A3
:1001A00080628C93AAE3B0E0EAE3F0E080818064AF
:1001B0008C93AAE3B0E0EAE3F0E0808180688C935E
:1001C000A4E3B0E0E4E3F0E080818E7F8C93A4E3CD
:1001D000B0E0E4E3F0E080818D7F8C93A4E3B0E0B5
:1001E000E4E3F0E080818B7F8C93A4E3B0E0E4E370
:1001F000F0E08081877F8C9324E040E060E080E045
:100200000E94E80982E390E00E94C20A0E945C0218
:1002100041E061E081E00E941001DF91CF910895FB
:10022000CF93DF93CDB7DEB727970FB6F894DEBF35
:100230000FBECDBF8B836C834D838B818864282F49
:100240008C81882F90E0880F991F282B8C81882F14
:1002500090E0880F991F880F991F822B8A838A81CB
:100260000E947C0B89838981813029F481E090E0B0
:100270009F838E8336C081E00E94960B898389819B
:10028000813029F481E090E09F838E832AC080E64C
:100290000E94960B89838981813029F481E090E066
:1002A0009F838E831EC00E94260C8A810E947C0B35
:1002B00089838981813029F481E090E09F838E8356
:1002C00010C080E00E94960B89838981813029F4D7
:1002D00081E090E09F838E8304C00E94260C1F82E1
:1002E0001E828E819F8127960FB6F894DEBF0FBEC7
:1002F000CDBFDF91CF910895CF93DF93CDB7DEB718
:100300002B970FB6F894DEBF0FBECDBF9E838D83B3
:100310006F83488729878F818864282F8885882F55
:1003200090E0880F991F282B8885882F90E0880FF0
:10033000991F880F991F822B8A838A810E947C0BC8
:1003400089838981813029F481E090E09B878A87C5
:1003500075C080E00E94960B89838981813029F4E1
:1003600081E090E09B878A8769C00E94260C8A8181
:100370000E94CE0B89838981813029F481E090E04D
:100380009B878A875BC0CE010396019660E00E943E
:10039000E80B89838981813029F481E090E09B8793
:1003A0008A874CC0CE01039661E00E94E80B8983E6
:1003B0008981813029F481E090E09B878A873EC063
:1003C0000E94260C8B819C81992374F48B819C81E3
:1003D0009595879595958795959587959595879505
:1003E000906F9C838B830CC08B819C8195958795A6
:1003F0009595879595958795959587959C838B83FE
:100400008B819C81AA2797FDA095BA2FBC01CD01B5
:100410000E94ED1FDC01CB0120E030E040E85DE30D
:10042000BC01CD010E94971DDC01CB01ED81FE8155
:1004300080839183A283B3831B861A868A859B85DA
:100440002B960FB6F894DEBF0FBECDBFDF91CF91D4
:100450000895CF93DF93CDB7DEB723970FB6F89407
:10046000DEBF0FBECDBF89836A834B83ABE3B0E0B1
:10047000EBE3F0E080818E7F8C9360E070E0898117
:100480000E94930A60E070E08A810E94930A60E013
:1004900070E08B810E94930AABE3B0E0EBE3F0E005
:1004A000808181608C9323960FB6F894DEBF0FBED7
:1004B000CDBFDF91CF910895CF93DF93CDB7DEB756
:1004C00080910A0190910A0120910A01482F692F19
:1004D000822F0E942902DF91CF910895CF93DF935D
:1004E000CDB7DEB767970FB6F894DEBF0FBECDBFAE
:1004F0006C837D838E839F8348878885282F30E097
:100500003F8B2E8B8E899F898130910509F462C1C2
:100510002E893F892230310509F469C28E899F896D
:10052000009709F028C320E030EC49E754E46C81DF
:100530007D818E819F810E944B1F18166CF020E0F8
:1005400030E046EC52EC6C817D818E819F810E946F
:10055000B71F88230CF005C021E030E03D8B2C8BC9
:1005600011C320E030E040E050E06C817D818E815D
:100570009F810E944B1F18160CF066C020E030E0EF
:1005800048EC52E46C817D818E819F810E94961E91
:10059000DC01CB0120E030E040E050E0BC01CD01C7
:1005A0000E944B1F18160CF01BC020E030E048ECF6
:1005B00052E46C817D818E819F810E94961EDC01B8
:1005C000CB011B8A20E030E040E85FE3BC01CD01B5
:1005D0000E94811F88230CF41DC031E03B8B1AC0A0
:1005E00020E030E048EC52EC6C817D818E819F816F
:1005F0000E94961EDC01CB011B8A20E030E040E81F
:100600005FE3BC01CD010E94811F88230CF402C06E
:1006100081E08B8B9B899923A1F020E030E048ECAE
:1006200052E46C817D818E819F810E94961EDC0147
:10063000CB01BC01CD010E94CD1BDC01CB018B8322
:1006400005C08AE08B8302C08BE08B8320E030E022
:1006500040E251E46C817D818E819F810E94961ED3
:10066000DC01CB0120E030E040E050E0BC01CD01F6
:100670000E944B1F18160CF01BC020E030E040E237
:1006800051E46C817D818E819F810E94961EDC01E8
:10069000CB011A8A20E030E040E85FE3BC01CD01E5
:1006A0000E94811F88230CF41DC021E02A8B1AC0F0
:1006B00020E030E040E251EC6C817D818E819F81B1
:1006C0000E94961EDC01CB011A8A20E030E040E84F
:1006D0005FE3BC01CD010E94811F88230CF402C09E
:1006E00031E03A8B8A898823E9F16C817D818E81A2
:1006F0009F810E944B20DC01CB0124E630E0B90150
:100700000E9404238A309105ACF06C817D818E813A
:100710009F810E944B20DC01CB0124E630E0B9012F
:100720000E9404232AE030E0B9010E940423CB0197
:10073000898B15C06C817D818E819F810E944B20A9
:10074000DC01CB0124E630E0B9010E9404232AE059
:1007500030E0B9010E940423CB018195898B9989EE
:100760009A8302C08AE08A836C817D818E819F8119
:100770000E944B20DC01CB012AE030E0B9010E944D
:100780000423988B8F872F85388933233CF48F85FA
:100790009889909581959F4F988B8F879F85998396
:1007A0008981882F90E0FC01E050FF4F20818A81F1
:1007B000882F90E0FC01E050FF4F30818B81882F23
:1007C00090E0FC01E050FF4F8081422F632F0E9498
:1007D0002902D6C120E030E048EC52E46C817D81F2
:1007E0008E819F810E94811F88236CF420E030E07D
:1007F00040E151EC6C817D818E819F810E94B71F09
:1008000088230CF005C021E030E03D8B2C8BBAC171
:1008100020E030E040E050E06C817D818E819F815E
:100820000E944B1F18160CF066C020E030E040E23A
:1008300051E46C817D818E819F810E94961EDC0136
:10084000CB0120E030E040E050E0BC01CD010E944F
:100850004B1F18160CF01BC020E030E040E251E4C2
:100860006C817D818E819F810E94961EDC01CB016F
:100870001E8620E030E040E85FE3BC01CD010E942D
:10088000811F88230CF41DC031E03E871AC020E090
:1008900030E040E251EC6C817D818E819F810E942D
:1008A000961EDC01CB011E8620E030E040E85FE3CD
:1008B000BC01CD010E94811F88230CF402C081E09D
:1008C0008E879E859923A1F020E030E040E251E43C
:1008D0006C817D818E819F810E94961EDC01CB01FF
:1008E000BC01CD010E94CD1BDC01CB018B8305C077
:1008F0008AE08B8302C08BE08B836C817D818E814B
:100900009F810E944B20DC01CB012AE030E0B9013D
:100910000E9404239D878C872C853D8533233CF4DE
:100920008C859D85909581959F4F9D878C879C8513
:100930009A8320E030E040E050E06C817D818E8140
:100940009F810E944B1F18160CF019C020E030E068
:1009500040E251E46C817D818E819F810E94971DD0
:10096000DC01CB01BC01CD010E944B20DC01CB019D
:100970002AE030E0B9010E9404238B8718C020E0F0
:1009800030E040E251EC6C817D818E819F810E943C
:10099000971DDC01CB01BC01CD010E944B20DC0185
:1009A000CB012AE030E0B9010E9404238B872B851C
:1009B00029838981882F90E0FC01E050FF4F30812E
:1009C0008A81882F90E0FC01E050FF4F9081809158
:1009D0000C01292F28238B81882F90E0FC01E05007
:1009E000FF4F8081432F622F0E942902C9C020E05F
:1009F00030E040E251E46C817D818E819F810E94D4
:100A0000811F88236CF420E030E040E050E06C81EE
:100A10007D818E819F810E94B71F88230CF005C0C5
:100A200081E090E09D8B8C8BADC06C817D818E814F
:100A30009F810E94CD1BDC01CB018B8320E030E045
:100A400040E050E06C817D818E819F810E944B1F30
:100A500018160CF019C020E030E040E251E46C813F
:100A60007D818E819F810E94971DDC01CB01BC019D
:100A7000CD010E944B20DC01CB012AE030E0B9011E
:100A80000E9404238A8718C020E030E040E251EC45
:100A90006C817D818E819F810E94971DDC01CB013D
:100AA000BC01CD010E944B20DC01CB012AE030E0EB
:100AB000B9010E9404238A879A859A8320E030E056
:100AC00040E050E06C817D818E819F810E944B1FB0
:100AD00018160CF019C020E030E048EC52E46C81AC
:100AE0007D818E819F810E94971DDC01CB01BC011D
:100AF000CD010E944B20DC01CB012AE030E0B9019E
:100B00000E940423898718C020E030E048EC52ECB2
:100B10006C817D818E819F810E94971DDC01CB01BC
:100B2000BC01CD010E944B20DC01CB012AE030E06A
:100B3000B9010E9404238987298529838981882F07
:100B400090E0FC01E050FF4F30818A81882F90E0D7
:100B5000FC01E050FF4F20818B81882F90E0FC0149
:100B6000E050FF4F908180910C018923432F622F29
:100B70000E94290205C081E090E09D8B8C8B02C011
:100B80001D8A1C8A8C899D8967960FB6F894DEBFF2
:100B90000FBECDBFDF91CF910895CF93DF93CDB737
:100BA000DEB7A4E3B0E0E4E3F0E0808180628C9300
:100BB000A4E3B0E0E4E3F0E080818F7E8C9324E056
:100BC00040E060E080E00E94E8090E94980860E050
:100BD0008CE00E94B20860E08DE00E94B20860E004
:100BE0008AE20E94B20860E989E20E94B20862E0EB
:100BF00088E20E94B20860E080E60E94B20860E0ED
:100C000080E70E94B20860E084E20E94B20860E0DF
:100C100085E20E94B20860E086E20E94B20860E0CD
:100C200087E20E94B20861E08BE20E94B20868E0AD
:100C30008FE00E94B208DF91CF910895CF93DF93A8
:100C4000CDB7DEB724970FB6F894DEBF0FBECDBF89
:100C50009C838B83E3E3F0E08081882F90E08071B8
:100C60009070959587959595879595958795959588
:100C70008795009779F7A5E3B0E0E5E3F0E08081A0
:100C80008F7D8C9360E070E080E90E94930ACE0132
:100C90000296BC0180E00E94930A8A81882F90E02E
:100CA000880F991F880F991F880F991FEB81FC816E
:100CB00091838083CE010296BC0180E00E94930A5A
:100CC000EB81FC81208131818A81829586958770B4
:100CD000882F90E0822B932BEB81FC819183808382
:100CE000CE010296BC0180E00E94930ACE010296DA
:100CF000BC0180E00E94930ACE010296BC0180E014
:100D00000E94930A8A818F70EB81FC818383198210
:100D100014C0CE010296BC0180E00E94930A898132
:100D2000282F30E04A818B819C81820F931FFC0128
:100D30003496408389818F5F8983EB81FC81938125
:100D40008981891730F340E061E08CE20E948309D9
:100D500024960FB6F894DEBF0FBECDBFDF91CF91C2
:100D60000895CF93DF93CDB7DEB724970FB6F894ED
:100D7000DEBF0FBECDBF9C838B83EB81FC81838163
:100D80008A83EB81FC8180819181969587959695E8
:100D9000879596958795682F81E30E94B208EB812D
:100DA000FC818081918187708295880F807E682F79
:100DB00082E30E94B208EB81FC818281882339F0B2
:100DC0008A818064682F85E30E94B2081CC06A8112
:100DD00085E30E94B208198212C08981282F30E071
:100DE0008B819C81820F931FFC01349690818981B5
:100DF0008A5C692F0E94B20889818F5F89839981FB
:100E00008A81981750F380E090E00E9410072496A2
:100E10000FB6F894DEBF0FBECDBFDF91CF9108951E
:100E2000CF93DF93CDB7DEB722970FB6F894DEBF2E
:100E30000FBECDBF9A83898389819A8183309105C2
:100E4000F0F4A5E3B0E0E5E3F0E080818F7D8C93E2
:100E500029813A8181E090E002C0880F991F2A958C
:100E6000E2F7982F80E8892B60E070E00E94930AF7
:100E7000A5E3B0E0E5E3F0E0808180628C93229608
:100E80000FB6F894DEBF0FBECDBFDF91CF910895AE
:100E9000CF93DF93CDB7DEB722970FB6F894DEBFBE
:100EA0000FBECDBF9A83898389819A819695879554
:100EB0009695879596958795682F80E20E94B2084F
:100EC000898187708295880F807E682F81E20E94D9
:100ED000B20822960FB6F894DEBF0FBECDBFDF91E9
:100EE000CF910895CF93DF93CDB7DEB722970FB69A
:100EF000F894DEBF0FBECDBF9A83898389819A8122
:100F0000969587959695879596958795682F84E20F
:100F10000E94B208898187708295880F807E682F31
:100F200085E20E94B20822960FB6F894DEBF0FBE8B
:100F3000CDBFDF91CF910895CF93DF93CDB7DEB7CB
:100F400022970FB6F894DEBF0FBECDBF9A83898378
:100F500089819A8196958795969587959695879597
:100F6000682F80E00E94B208898187708295880F7F
:100F7000807E682F81E00E94B20822960FB6F89416
:100F8000DEBF0FBECDBFDF91CF910895CF93DF932A
:100F9000CDB7DEB722970FB6F894DEBF0FBECDBF38
:100FA0009A83898389819A81969587959695879565
:100FB00096958795682F84E00E94B2088981877092
:100FC0008295880F807E682F85E00E94B208229665
:100FD0000FB6F894DEBF0FBECDBFDF91CF9108955D
:100FE000CF93DF93CDB7DEB722970FB6F894DEBF6D
:100FF0000FBECDBF9A83898389819A819695879503
:101000009695879596958795682F88E00E94B208F7
:10101000898187708295880F807E682F89E00E9481
:10102000B20822960FB6F894DEBF0FBECDBFDF9197
:10103000CF910895CF93DF93CDB7DEB722970FB648
:10104000F894DEBF0FBECDBF9A83898389819A81D0
:10105000969587959695879596958795682F80E1C3
:101060000E94B208898187708295880F807E682FE0
:1010700081E10E94B20822960FB6F894DEBF0FBE3F
:10108000CDBFDF91CF910895CF93DF93CDB7DEB77A
:1010900022970FB6F894DEBF0FBECDBF9A83898327
:1010A00089819A8196958795969587959695879546
:1010B000682F84E10E94B208898187708295880F29
:1010C000807E682F85E10E94B20822960FB6F894C0
:1010D000DEBF0FBECDBFDF91CF910895CF93DF93D9
:1010E000CDB7DEB722970FB6F894DEBF0FBECDBFE7
:1010F0009A83898389819A81969587959695879514
:1011000096958795682F88E10E94B208898187703B
:101110008295880F807E682F89E10E94B20822960E
:101120000FB6F894DEBF0FBECDBFDF91CF9108950B
:10113000CF93DF93CDB7DEB7A5E3B0E0E5E3F0E012
:1011400080818F7D8C9360E070E080EC0E94930A38
:10115000A5E3B0E0E5E3F0E0808180628C93DF916D
:10116000CF910895CF93DF93CDB7DEB722970FB617
:10117000F894DEBF0FBECDBF89836A83A5E3B0E0DC
:10118000E5E3F0E080818F7D8C9360E070E082E0A9
:101190000E94930A60E070E089810E94930A60E0F7
:1011A00070E08A810E94930AA5E3B0E0E5E3F0E0F5
:1011B000808180628C9322960FB6F894DEBF0FBEBA
:1011C000CDBFDF91CF910895CF93DF93CDB7DEB739
:1011D00022970FB6F894DEBF0FBECDBF8A83A5E37A
:1011E000B0E0E5E3F0E080818F7D8C9360E070E01B
:1011F00083E00E94930A60E070E08A810E94930A73
:10120000CE010196BC0180E00E94930AA5E3B0E004
:10121000E5E3F0E0808180628C938981882F90E003
:1012200022960FB6F894DEBF0FBECDBFDF91CF91EF
:101230000895CF93DF93CDB7DEB721970FB6F8941B
:10124000DEBF0FBECDBFA5E3B0E0E5E3F0E08081F7
:101250008F7D8C9360E070E080EA0E94930ACE015B
:101260000196BC0180E00E94930ACE010196BC0168
:1012700080E00E94930AA5E3B0E0E5E3F0E080811E
:1012800080628C938981882F90E021960FB6F89424
:10129000DEBF0FBECDBFDF91CF910895CF93DF9317
:1012A000CDB7DEB721970FB6F894DEBF0FBECDBF26
:1012B000A5E3B0E0E5E3F0E080818F7D8C9360E012
:1012C00070E080EB0E94930ACE010196BC0180E0A1
:1012D0000E94930ACE010196BC0180E00E94930A0D
:1012E000A5E3B0E0E5E3F0E0808180628C93898142
:1012F000882F90E021960FB6F894DEBF0FBECDBFC9
:10130000DF91CF910895CF93DF93CDB7DEB72397C9
:101310000FB6F894DEBF0FBECDBF89836A834B83BF
:10132000A5E3B0E0E5E3F0E080818F7D8C9360E0A1
:1013300070E083E00E94930A60E070E089810E947F
:10134000930A60E070E08A810E94930A60E070E096
:101350008B810E94930AA5E3B0E0E5E3F0E0808191
:1013600080628C9323960FB6F894DEBF0FBECDBF7C
:10137000DF91CF9108951F920F920FB60F92112413
:101380002F933F934F935F936F937F938F939F938D
:10139000AF93BF93EF93FF93CF93DF93CDB7DEB7B8
:1013A000E0911702F09118020995DF91CF91FF911A
:1013B000EF91BF91AF919F918F917F916F915F91CD
:1013C0004F913F912F910F900FBE0F901F90189546
:1013D000CF93DF93CDB7DEB724970FB6F894DEBF77
:1013E0000FBECDBF89836A834B832C83A7E3B0E014
:1013F000E7E3F0E0808187608C93A7E3B0E0E7E368
:10140000F0E0908187EF89238C93EDE2F0E0898111
:10141000882F90E0880F991F880F991F880F991FB8
:10142000282F20658A81882F90E0880F991F880FC8
:10143000991F282B8B81882F90E0880F991F829508
:101440009295907F9827807F9827822B80838C812C
:10145000833031F08C81843019F08C81873039F4FD
:10146000ADE2B0E0EDE2F0E0808181608C938C81B0
:10147000853038F0ADE2B0E0EDE2F0E080818260EE
:101480008C938C81813031F08C81833019F08C8188
:10149000853039F4AEE2B0E0EEE2F0E080818160C8
:1014A0008C9324960FB6F894DEBF0FBECDBFDF91AC
:1014B000CF910895CF93DF93CDB7DEB722970FB6C4
:1014C000F894DEBF0FBECDBF9A838983A7E3B0E057
:1014D000E7E3F0E0808188608C93A7E3B0E0E7E386
:1014E000F0E0908188EF89238C93EDE2F0E080E4D6
:1014F000808389819A81009769F089819A8190938C
:10150000180280931702ADE2B0E0EDE2F0E08081D6
:1015100080688C9322960FB6F894DEBF0FBECDBFC5
:10152000DF91CF910895CF93DF93CDB7DEB72397A7
:101530000FB6F894DEBF0FBECDBF89837B836A836D
:10154000EFE2F0E089818083EEE2F0E080818823A1
:1015500024F0809116028823B9F38A819B81009739
:1015600031F0EFE2F0E08081EA81FB81808380E06E
:1015700090E023960FB6F894DEBF0FBECDBFDF918B
:10158000CF910895CF93DF93CDB7DEB726970FB6EF
:10159000F894DEBF0FBECDBF9A838983E1E7F0E008
:1015A000108280E790E09C838B8389819A819C01E3
:1015B000442737FD4095542F80E49FE1A0E0B0E040
:1015C000BC01CD010E941723DA01C90140979E8317
:1015D0008D83ED81FE81FF232CF48D819E81019608
:1015E0009E838D838D819E8195958795EB81FC816E
:1015F0008083E4E7F0E084E0808326960FB6F894D9
:10160000DEBF0FBECDBFDF91CF910895CF93DF93A3
:10161000CDB7DEB727970FB6F894DEBF0FBECDBFAC
:101620008C836D838C81880F8C838D81882319F046
:101630008C8181608C831A82198244C0E4E7F0E0D7
:1016400084EA8083E4E7F0E08081882324F08091BD
:1016500016028823B9F3E1E7F0E0908188EF89234F
:101660008B838B81883019F08B81803131F5E3E7F2
:10167000F0E08C818083E4E7F0E084E88083E4E7B5
:10168000F0E08081882324F0809116028823B9F34A
:10169000E1E7F0E0908188EF89238B838D818823B7
:1016A00019F48B81883131F08D81882331F08B8161
:1016B000803419F41F821E8214C089819A81019698
:1016C0009A83898389819A8123E0883E92072CF44A
:1016D00080911602882309F4B1CF81E090E09F83C6
:1016E0008E838E819F8127960FB6F894DEBF0FBE42
:1016F000CDBFDF91CF910895CF93DF93CDB7DEB704
:1017000021970FB6F894DEBF0FBECDBF898360E08E
:1017100089810E94060B882F90E021960FB6F894DD
:10172000DEBF0FBECDBFDF91CF910895CF93DF9382
:10173000CDB7DEB723970FB6F894DEBF0FBECDBF8F
:101740008983E3E7F0E089818083E4E7F0E084E8DF
:101750008083E4E7F0E08081882324F08091160202
:101760008823B9F3E1E7F0E08081882F90E0887F5B
:1017700090708832910529F081E090E09B838A8304
:1017800002C01B821A828A819B8123960FB6F8942D
:10179000DEBF0FBECDBFDF91CF910895CF93DF9312
:1017A000CDB7DEB721970FB6F894DEBF0FBECDBF21
:1017B000898361E089810E94060B882F90E0219641
:1017C0000FB6F894DEBF0FBECDBFDF91CF91089565
:1017D000CF93DF93CDB7DEB725970FB6F894DEBF72
:1017E0000FBECDBF9A8389836B838B81882329F0B9
:1017F000E4E7F0E084E8808304C0E4E7F0E084EC10
:101800008083E4E7F0E08081882324F08091160251
:101810008823B9F380911602882329F081E090E0B3
:101820009D838C8308C0E3E7F0E08081E981FA8141
:1018300080831D821C828C819D8125960FB6F89431
:10184000DEBF0FBECDBFDF91CF910895CF93DF9361
:10185000CDB7DEB7E4E7F0E084E98083DF91CF9194
:1018600008951F920F920FB60F9211242F933F935A
:101870004F935F936F937F938F939F93AF93BF9398
:10188000EF93FF93CF93DF93CDB7DEB7EDE4F0E0B6
:101890008EEF8083ECE4F0E080E6808380911C0290
:1018A00090911D022BE48030920729F410921D02C2
:1018B00010921C0209C080911C0290911D02019699
:1018C00090931D0280931C020E947116DF91CF91AC
:1018D000FF91EF91BF91AF919F918F917F916F9108
:1018E0005F914F913F912F910F900FBE0F901F90DE
:1018F00018951F920F920FB60F9211242F933F93BA
:101900004F935F936F937F938F939F93AF93BF9307
:10191000EF93FF93CF93DF93CDB7DEB72697DEBF6C
:10192000CDBF80912A02282F30E03E832D838D8108
:101930009E818430910509F489C12D813E81253035
:101940003105ECF48D819E818130910509F470C0E0
:101950002D813E81223031052CF48D819E810097AE
:1019600039F14CC22D813E812230310509F497C0F6
:101970008D819E818330910509F4F8C03FC22D818D
:101980003E812630310509F4ECC18D819E8186307F
:1019900091050CF420C12D813E812730310509F4D9
:1019A000AFC18D819E818830910509F40BC226C29A
:1019B000ECE9F0E080818823B1F589E190E00E94B4
:1019C000680F80912E02282F30E03C832B838B817F
:1019D0009C81813091051CF12B813C8123303105A4
:1019E00074F08B819C8185309105CCF460E089EBAB
:1019F00090E00E94E41781E080932A0207C2ECE99C
:101A0000F0E085E580830E941612882F90E0909385
:101A10001F0280931E0281E080932A02F7C181E0B9
:101A200080932A02F3C10E94091810922A02EEC183
:101A3000ECE9F0E080818535D9F480912E02882F81
:101A400090E001978230910578F4809129020E94FC
:101A5000591280932D02ECE9F0E080912D028083F1
:101A600082E080932A02D2C183E080932A02CEC111
:101A70000E94091810922A0288E080932B0280911C
:101A80002E02882F90E001978230910520F481E0AA
:101A900080932C02BBC188E080932C02B7C1EBE994
:101AA000F0E08081882F90E080719070009779F04D
:101AB0000E94091881E080932C0288E080932B0219
:101AC00010922A0285E290E00E94680F9FC1ECE923
:101AD000F0E0908180912D029817C9F580912E0237
:101AE000282F30E03A83298389819A8181309105BA
:101AF00031F029813A8122303105E9F087C18091A6
:101B000029020E941D0F80933002809130028823A9
:101B100009F47CC1ECE9F0E080912102808384E04B
:101B200080932A028091300281508093300281E0BC
:101B300080932F026BC185E080932A0210922F02BE
:101B4000809129020E941D0F809330025FC10E9484
:101B5000091810922A0281E080932C0288E0809379
:101B60002B0285E290E00E94680F50C1ECE9F0E0A2
:101B70008081809329020E940918809129020E9485
:101B80005912982F80912902981749F4EBE9F0E057
:101B90008081882F90E080719070009769F084E0D8
:101BA00080932C0288E080932B0210922A0285E217
:101BB00090E00E94680F2AC184E080932B0285E0A8
:101BC00080932A0210922F02809129020E941D0FF9
:101BD000809330021BC1EBE9F0E08081882F90E018
:101BE00080719070009779F00E94091881E08093CD
:101BF0002C0288E080932B0210922A0285E290E06A
:101C00000E94680F03C180912F02882F90E0ECE9B9
:101C1000F0E02081FC01EF5DFD4F208380912F02D9
:101C20008F5F80932F0290912F028091300298173E
:101C300009F0ECC00E941612882F90E090931F02CA
:101C400080931E0287E080932A02E0C0EBE9F0E077
:101C50008081882F90E080719070009779F00E94C9
:101C6000091881E080932C0288E080932B02109267
:101C70002A0285E290E00E94680FC8C080912F027E
:101C8000882F90E00197FC01EF5DFD4F9081ECE91A
:101C9000F0E08081981729F5809130028823B1F017
:101CA000ACE9B0E080912F02882F90E0FC01EF5D5D
:101CB000FD4F80818C93809130028150809330025F
:101CC00080912F028F5F80932F02A0C0ECE9F0E09B
:101CD00080911E0290911F02808386E080932A02E9
:101CE00095C00E94091881E080932C0288E08093BF
:101CF0002B0210922A0285E290E00E94680F86C0B3
:101D0000EBE9F0E08081882F90E08071907000977F
:101D100039F081E080932C0288E080932B0218C078
:101D200080911E0290911F029C013070ECE9F0E05E
:101D30008081882F90E02817390739F082E080935E
:101D40002C0288E080932B0203C081E080932B0259
:101D50000E94091810922A0285E290E00E94680F02
:101D600055C0EBE9F0E08081882F90E080719070A1
:101D7000009739F081E080932C0288E080932B0259
:101D800018C080911E0290911F029C013070ECE9F6
:101D9000F0E08081882F90E02817390739F082E041
:101DA00080932C0288E080932B0203C082E0809312
:101DB0002B020E94091810922A0285E290E00E94EC
:101DC000680F24C080E480932C0288E080932B026B
:101DD000ECE9F0E080818038C9F41092200281E0C3
:101DE00080932B0280E480932C0210927702109251
:101DF0002A0285E290E00E94680F08C00E9409183C
:101E000010922A0285E290E00E94680F2696F894CC
:101E1000DEBFCDBFDF91CF91FF91EF91BF91AF9129
:101E20009F918F917F916F915F914F913F912F91F2
:101E30000F900FBE0F901F901895CF93DF93CDB7E3
:101E4000DEB721970FB6F894DEBF0FBECDBF8983F2
:101E50008981882F90E080739070959587959595EE
:101E600087959595879595958795809330020E94E3
:101E7000091880913002823048F462E08AEB90E0E9
:101E80000E94E41782E08093300215C080913002F6
:101E9000823049F464E08DE890E00E94E41784E029
:101EA0008093300208C068E081E390E00E94E4176C
:101EB00088E08093300280913002882F90E0219654
:101EC0000FB6F894DEBF0FBECDBFDF91CF9108955E
:101ED000CF93DF93CDB7DEB722970FB6F894DEBF6E
:101EE0000FBECDBF9A838983E9E9F0E089818083C1
:101EF000E8E9F0E089819A818070892F99278083B1
:101F000022960FB6F894DEBF0FBECDBFDF91CF9102
:101F10000895CF93DF93CDB7DEB760E08FEA90E00E
:101F20000E94E41785E290E00E94680FECE9F0E07F
:101F3000108280E180932B0281E080932E02DF915A
:101F4000CF910895CF93DF93CDB7DEB760E08FEAEE
:101F500090E00E94E41785E290E00E94680FECE9AF
:101F6000F0E0108280E180932B0282E080932E02C9
:101F7000DF91CF910895CF93DF93CDB7DEB7EDE931
:101F8000F0E086E08083EAE9F0E088E98083DF9191
:101F9000CF910895CF93DF93CDB7DEB70E94BB0FEB
:101FA00085E290E00E94680F10922B02109234029A
:101FB00010923302109232021092310210926E028D
:101FC00010926D0210926C0210926B0210926602D7
:101FD00010926502109277020E94181381E090E03F
:101FE000DF91CF910895CF93DF93CDB7DEB72797D9
:101FF0000FB6F894DEBF0FBECDBF9D838C83EC81FE
:10200000FD81818192818430910509F060C0EC816D
:10201000FD818081813009F05AC0EC81FD8103800F
:10202000F481E02D808182958F700E94CD1189838B
:10203000109230021A821EC080913002482F50E068
:10204000EC81FD810380F481E02D218132818A8140
:10205000882F90E0F901E80FF91F8081FA01EF5D08
:10206000FD4F8083809130028F5F809330028A81A0
:102070008F5F8A839A8189819817F0F285E290E0D8
:102080000E94680F89E190E00E94680FECE9F0E09F
:1020900080912102808380E180932B0283E08093F2
:1020A0002E0284E080932A0281E080932F020E9416
:1020B0001612882F90E090931F0280931E02809149
:1020C000300281508093300281E08B83B4C08091D4
:1020D0002B02882F90E080719070009711F01B8286
:1020E000AAC081E08B8310922B0210922C02EC810B
:1020F000FD810180F281E02DFF83EE838E819F813F
:102100008330910509F46DC08E819F8184309105E3
:1021100060F48E819F8181309105A1F08E819F8135
:102120008230910509F44EC086C08E819F81853032
:10213000910509F471C08E819F818630910509F463
:102140005BC079C0EC81FD8181E08083EC81FD8101
:102150000380F481E02D808182958F700E94CD11E3
:102160008983109230021A821EC080913002482F5B
:1021700050E0EC81FD810380F481E02D21813281EA
:102180008A81882F90E0F901E80FF91F8081FA0118
:10219000EF5DFD4F8083809130028F5F809330022E
:1021A0008A818F5F8A839A8189819817F0F2EC8106
:1021B000FD810380F481E02D8081809329020E94BB
:1021C000890F39C0EC81FD8181E08083EC81FD8144
:1021D0000380F481E02D8081809329020E94A20F68
:1021E0002AC0EC81FD8181E0808380E180932B0215
:1021F00084E080932E021FC0EC81FD8181E080830A
:1022000089E190E00E94680FECE9F0E080E88083CB
:1022100082E080932B020FC0EC81FD8181E08083FE
:1022200089E190E00E94680FECE9F0E080E88083AB
:1022300082E080932B028B81882F90E027960FB647
:10224000F894DEBF0FBECDBFDF91CF910895CF933D
:10225000DF93CDB7DEB726970FB6F894DEBF0FBE7B
:10226000CDBF9E838D83ED81FE818081882319F40B
:102270001C821B8287C080912B028F718A838A8186
:10228000823051F4ED81FE81108210922B0281E0A8
:1022900090E09C838B8376C08A818130D9F5ED8173
:1022A000FE81108210922B02ED81FE810380F48169
:1022B000E02D808182958F700E94CD118A831092CB
:1022C000300219821EC0ED81FE810380F481E02D71
:1022D000218132818981882F90E0D901A80FB91F0F
:1022E00080913002882F90E0FC01EF5DFD4F8081EE
:1022F0008C93809130028F5F8093300289818F5F51
:10230000898399818A819817F0F281E090E09C831B
:102310008B8338C08A818430A1F4ED81FE8181E015
:10232000808310922B02ED81FE810380F481E02DE9
:10233000809129028F73808382E090E09C838B835D
:1023400021C08A81883081F4ED81FE811082109253
:102350002B0280912C02882F90E080549F4F9C8309
:102360008B8310922C020EC08A81803129F483E085
:1023700090E09C838B8306C080912A02882311F40D
:102380001C821B828B819C8126960FB6F894DEBF3F
:102390000FBECDBFDF91CF910895CF93DF93CDB71F
:1023A000DEB722970FB6F894DEBF0FBECDBF8A838B
:1023B0008A81823018F482E0898308C08A81823061
:1023C00019F484E0898302C088E089838981882F99
:1023D00090E022960FB6F894DEBF0FBECDBFDF911E
:1023E000CF910895CF93DF93CDB7DEB722970FB685
:1023F000F894DEBF0FBECDBF8A838A81833010F48C
:10240000198208C08A81853018F482E0898302C06D
:1024100083E089838981882F90E022960FB6F89413
:10242000DEBF0FBECDBFDF91CF910895CF93DF9375
:10243000CDB7DEB723970FB6F894DEBF0FBECDBF82
:102440001B821A82198223C08981882F90E0FC01A7
:10245000EF5DFD4F8081282F30E08A819B81820FC4
:10246000931F9B838A838A819B8180709170292F1F
:1024700033278A819B81820F931F9B838A838A8162
:102480009B8190709B838A8389818F5F89839091E0
:10249000300289818917C0F28A818095882F90E067
:1024A00023960FB6F894DEBF0FBECDBFDF91CF915C
:1024B0000895CF93DF93CDB7DEB724970FB6F89486
:1024C000DEBF0FBECDBF8C838C818F7389838981E2
:1024D000282F21708981882F90E0827090709595C7
:1024E000879528278981882F90E084709070959532
:1024F00087959595879528278981882F90E0807109
:1025000090709595879595958795959587959595CF
:10251000879582278B838981882F90E082709070C5
:102520009C01359527958981882F90E0887090705F
:10253000959587959595879595958795282739271A
:102540008981882F90E080719070959587959595F9
:10255000879595958795959587952827392789811A
:10256000882F90E0807290709595879595958795C6
:102570009595879595958795959587951A822817AE
:10258000390711F481E08A838A81882F90E0817075
:1025900090709695982F882797958795282F8B81EF
:1025A000882F90E08170907000249695879507940D
:1025B000969587950794982F802D922F982B898137
:1025C000892B89838981882F90E024960FB6F8940F
:1025D000DEBF0FBECDBFDF91CF910895CF93DF93C4
:1025E000CDB7DEB723970FB6F894DEBF0FBECDBFD1
:1025F000898389818A3048F48981805D282F332737
:1026000027FD30953B832A8308C08981895C282F68
:10261000332727FD30953B832A838A819B8123962C
:102620000FB6F894DEBF0FBECDBFDF91CF910895F6
:10263000CF93DF93CDB7DEB7A7E5B0E0E7E5F0E0F5
:10264000808184608C93EFE4F0E01082EEE4F0E0AF
:1026500081E08083EDE4F0E08EEF8083ECE4F0E055
:1026600080E68083DF91CF910895CF93DF93CDB73C
:10267000DEB722970FB6F894DEBF0FBECDBF8A83B8
:102680008A81882F90E080739070959587959595B5
:1026900087959595879595958795898389818230CA
:1026A00018F482E0898308C08981823019F484E0BB
:1026B000898302C088E089838981882F90E02296EF
:1026C0000FB6F894DEBF0FBECDBFDF91CF91089556
:1026D000CF93DF93CDB7DEB723970FB6F894DEBF65
:1026E0000FBECDBF8A836B839FEC8A818923898348
:1026F0008B81823021F48981806189830DC08B8137
:10270000843021F489818062898306C08B8188307E
:1027100019F48981806389838981882F90E02396C9
:102720000FB6F894DEBF0FBECDBFDF91CF910895F5
:10273000CF93DF93CDB7DEB725970FB6F894DEBF02
:102740000FBECDBF8C836D8385E392E09A8389832E
:102750008C818C3351F11B8223C08B81482F50E038
:1027600080917802882F90E029813A81880F991F03
:10277000880F991F880F991F820F931FFC013396B2
:10278000208131818B81882F90E0F901E80FF91FBA
:102790008081FA01E159FD4F80838B818F5F8B83AC
:1027A0009B818D819817C8F210C01B820AC08B8153
:1027B000882F90E0FC01E159FD4F10828B818F5FE3
:1027C0008B839B818D81981790F325960FB6F89493
:1027D000DEBF0FBECDBFDF91CF910895CF93DF93C2
:1027E000CDB7DEB728970FB6F894DEBF0FBECDBFCA
:1027F0008F8368871A8285E392E09C838B838F8125
:102800008C3009F4AFC01E82A5C08E81882F90E065
:102810002B813C81880F991F880F991F880F991F62
:10282000820F931FFC0135968081813009F08FC0A3
:102830008F81882F90E0AC014F7050708E81882F6F
:1028400090E02B813C81880F991F880F991F880F7A
:10285000991F820F931FFC0131968081882F90E091
:102860004817590709F073C08E81882F90E02B819B
:102870003C81880F991F880F991F880F991F820F1D
:10288000931FFC01329690818885981709F05FC0EC
:102890008E81882F90E02B813C81880F991F880FB3
:1028A000991F880F991F820F931FFC013396208177
:1028B0003181E0916302F0916402818192814885C7
:1028C000B9010E94CE1489838981882309F43FC00D
:1028D0008E81882F90E02B813C810196880F991F73
:1028E000880F991F880F991FFC01E20FF31F898140
:1028F00080831D8228C08E81882F90E02B813C81AF
:10290000880F991F880F991F880F991F820F931F97
:10291000FC013396208131818D81882F90E0D9018F
:10292000A80FB91FE0916302F09164022181328106
:102930008D81882F90E0F901E80FF91F80818C9339
:102940008D818F5F8D839D8188859817A0F28E8100
:102950008F5F8E83EB81FC8190818E81891708F4D3
:1029600054CF10C08F818C3069F4E0916302F091F4
:1029700064020180F281E02D8081882319F481E0D6
:10298000809377028A81882F90E028960FB6F8947A
:10299000DEBF0FBECDBFDF91CF910895CF93DF9300
:1029A000CDB7DEB728970FB6F894DEBF0FBECDBF08
:1029B0009B838A837D836C834E8319821EC08981A9
:1029C000882F90E09C018A819B81F901E80FF91F13
:1029D00040818981882F90E09C018C819D81F90143
:1029E000E80FF91F8081481729F081E090E098876F
:1029F0008F8309C089818F5F898399818E81981720
:102A0000F0F218861F828F81988528960FB6F89469
:102A1000DEBF0FBECDBFDF91CF910895CF93DF937F
:102A2000CDB7DEB723970FB6F894DEBF0FBECDBF8C
:102A300085E392E09B838A8310922B028091780237
:102A4000282F30E0EA81FB818081882F90E0019778
:102A5000281739071CF01092780205C0809178027F
:102A60008F5F8093780280916A02882391F11982A6
:102A70000AC08981882F90E0FC01E159FD4F108246
:102A800089818F5F89838981883098F368E08CE041
:102A90000E9468138093670281E090E09093620245
:102AA0008093610287E692E09093640280936302D0
:102AB0008FE692E0909369028093680280ED97E040
:102AC00090931A028093190280E692E00E94F30F1D
:102AD000FFC080912002882339F084E690E0909333
:102AE0001A0280931902F4C080917802882F90E036
:102AF0002A813B81880F991F880F991F880F991F82
:102B0000820F931FFC0135968081882309F079C0DC
:102B100080917802882F90E02A813B81880F991F4D
:102B2000880F991F880F991F820F931FFC013296FF
:102B3000408180917802882F90E02A813B81880F24
:102B4000991F880F991F880F991F820F931FFC01EF
:102B500031968081642F0E94981380917802882F8B
:102B600090E02A813B81880F991F880F991F880F59
:102B7000991F820F931FFC01329640818091780249
:102B8000882F90E02A813B81880F991F880F991F19
:102B9000880F991F820F931FFC0131968081642F4B
:102BA0000E9468138093670281E090E09093620234
:102BB0008093610287E692E09093640280936302BF
:102BC0008FE692E090936902809368028091780288
:102BD000882F90E02A813B81880F991F880F991FC9
:102BE000880F991F820F931FFC0136968081918177
:102BF00090931A028093190280E692E00E94F30FEC
:102C000067C080917802882F90E02A813B81880FED
:102C1000991F880F991F880F991F820F931FFC011E
:102C200035968081813009F053C080917802882FD9
:102C300090E02A813B81880F991F880F991F880F88
:102C4000991F820F931FFC01329640818091780278
:102C5000882F90E02A813B81880F991F880F991F48
:102C6000880F991F820F931FFC0131968081642F7A
:102C70000E9468138093670282E090E09093620262
:102C80008093610287E692E09093640280936302EE
:102C90008FE692E0909369028093680280917802B7
:102CA000882F90E02A813B81880F991F880F991FF8
:102CB000880F991F820F931FFC01369680819181A6
:102CC00090931A028093190280E692E00E94F30F1B
:102CD00023960FB6F894DEBF0FBECDBFDF91CF9124
:102CE0000895CF93DF93CDB7DEB78091190290910D
:102CF0001A02009749F08091190290911A020197E7
:102D000090931A028093190280E692E00E942711A4
:102D100090935F0280935E0280915E0290915F02C9
:102D20008330910509F44AC080915E0290915F0260
:102D30008130910531F5809161029091620282307B
:102D4000910571F4809167020E943513982F80914C
:102D500067028F70692F0E94EE1310922B022EC013
:102D600080916A02882351F110926A0281E0809377
:102D7000200289E190E00E94680F88E080932A0297
:102D80001DC080915E0290915F02009749F480918E
:102D9000190290911A02009719F40E940E150EC0A4
:102DA00080915E0290915F020E94E3168091190269
:102DB00090911A02009711F40E940E1580E090E0A5
:102DC000DF91CF910895CF93DF93CDB7DEB72197F1
:102DD0000FB6F894DEBF0FBECDBF89838981882FDF
:102DE00090E0817C9070813C910551F480916D025E
:102DF00090916E02019690936E0280936D0247C08F
:102E00008981882F90E0827C9070823C910551F4FA
:102E10008091330290913402019690933402809312
:102E2000330235C08981882F90E0847C9070843C87
:102E3000910551F4809165029091660201969093FC
:102E400066028093650223C08981882F90E0887C88
:102E50009070883C910551F480916B0290916C02C6
:102E6000019690936C0280936B0211C08981882F28
:102E700090E0807E9070803E910549F4809131020F
:102E80009091320201969093320280933102219602
:102E90000FB6F894DEBF0FBECDBFDF91CF9108957E
:102EA000CF93DF93CDB7DEB721970FB6F894DEBF8F
:102EB0000FBECDBF8983E2E5F0E089818083E3E541
:102EC000F0E082E08083A7E5B0E0E7E5F0E0808114
:102ED00081608C9321960FB6F894DEBF0FBECDBFF4
:102EE000DF91CF910895CF93DF93CDB7DEB7A7E5FC
:102EF000B0E0E7E5F0E080818E7F8C93E3E5F0E0E1
:102F00001082DF91CF910895CF93DF93CDB7DEB7D5
:102F100022970FB6F894DEBF0FBECDBF9A83898388
:102F2000EFE4F0E01082EEE4F0E081E08083ECE496
:102F3000F0E089819A819183808322960FB6F8947C
:102F4000DEBF0FBECDBFDF91CF910895CF93DF934A
:102F5000CDB7DEB7A7E5B0E0E7E5F0E080818B7F95
:102F60008C93EFE4F0E01082EEE4F0E01082DF9169
:102F7000CF910895CF93DF93CDB7DEB7AEE4B0E045
:102F8000EEE4F0E0808180688C93AEE4B0E0EEE4A3
:102F9000F0E080818F7B8C93A7E5B0E0E7E5F0E07F
:102FA000808180628C93DF91CF910895CF93DF93DE
:102FB000CDB7DEB7A7E5B0E0E7E5F0E080818F7D33
:102FC0008C93DF91CF910895CF93DF93CDB7DEB788
:102FD00023970FB6F894DEBF0FBECDBF9A838983C7
:102FE0006B83A7E5B0E0E7E5F0E0808180648C9337
:102FF000E4E4F0E089818083E5E4F0E086E080832A
:1030000023960FB6F894DEBF0FBECDBFDF91CF91F0
:103010000895CF93DF93CDB7DEB7A7E5B0E0E7E53E
:10302000F0E080818F7B8C93E5E4F0E01082DF910B
:10303000CF910895CF93DF93CDB7DEB7ADE7B0E082
:10304000EDE7F0E0808184608C93EBE8F0E01082A3
:10305000EAE8F0E081E08083ECE7F0E08FEF808346
:10306000E9E8F0E01082E8E8F0E01082DF91CF912B
:103070000895CF93DF93CDB7DEB7AAE8B0E0EAE8D2
:10308000F0E0808180688C93AAE8B0E0EAE8F0E0A4
:1030900080818F7B8C93ADE7B0E0EDE7F0E080813D
:1030A00080628C93DF91CF910895CF93DF93CDB75A
:1030B000DEB7ADE7B0E0EDE7F0E080818F7D8C9387
:1030C000EAE8F0E01082DF91CF910895CF93DF938B
:1030D000CDB7DEB7EAE8F0E01082ADE7B0E0EDE7AB
:1030E000F0E080818F7D8C93ECE7F0E08FEF8083C0
:1030F000DF91CF910895CF93DF93CDB7DEB72297BD
:103100000FB6F894DEBF0FBECDBF9A838983EAE283
:10311000F0E01082E0E9F0E089819A81892F992717
:103120008083E9E2F0E089818083EBE2F0E080E2F5
:103130008083E5E9F0E08EE08083EAE2F0E088E178
:10314000808322960FB6F894DEBF0FBECDBFDF910D
:10315000CF910895CF93DF93CDB7DEB722970FB607
:10316000F894DEBF0FBECDBF9A838983EAE9F0E011
:103170001082E8E9F0E089819A81892F992780837C
:10318000E9E9F0E089818083EBE9F0E080E2808387
:10319000EDE9F0E08EE08083EAE9F0E088E1808309
:1031A00022960FB6F894DEBF0FBECDBFDF91CF9150
:1031B0000895CF93DF93CDB7DEB721970FB6F8947C
:1031C000DEBF0FBECDBFEBE2F0E08081882314F0BC
:1031D000198204C0ECE2F0E0808189838981882F24
:1031E00090E021960FB6F894DEBF0FBECDBFDF9101
:1031F000CF910895CF93DF93CDB7DEB721970FB668
:10320000F894DEBF0FBECDBFEBE9F0E080818823EC
:1032100014F0198204C0ECE9F0E08081898389818F
:10322000882F90E021960FB6F894DEBF0FBECDBF79
:10323000DF91CF910895CF93DF93CDB7DEB721977C
:103240000FB6F894DEBF0FBECDBF8983EBE2F0E08E
:103250008081882F90E0807290700097B9F3ECE243
:10326000F0E08981808321960FB6F894DEBF0FBE0F
:10327000CDBFDF91CF910895CF93DF93CDB7DEB768
:1032800021970FB6F894DEBF0FBECDBF8983EBE95F
:10329000F0E08081882F90E0807290700097B9F301
:1032A000ECE9F0E08981808321960FB6F894DEBFC7
:1032B0000FBECDBFDF91CF910895CF93DF93CDB7F0
:1032C000DEB722970FB6F894DEBF0FBECDBF9A834C
:1032D00089830BC0E981FA81208189819A810196D5
:1032E0009A838983822F0E941B19E981FA81808148
:1032F000882381F722960FB6F894DEBF0FBECDBFAC
:10330000DF91CF910895CF93DF93CDB7DEB72297AA
:103310000FB6F894DEBF0FBECDBF9A8389830BC072
:10332000E981FA81208189819A8101969A83898332
:10333000822F0E943C19E981FA818081882381F7DC
:1033400022960FB6F894DEBF0FBECDBFDF91CF91AE
:103350000895CF93DF93CDB7DEB722970FB6F894D9
:10336000DEBF0FBECDBF9A8389830BC0E981FA818E
:10337000208189819A8101969A838983822F0E9474
:103380001B19E981FA818081882381F722960FB683
:10339000F894DEBF0FBECDBFDF91CF910895CF93DC
:1033A000DF93CDB7DEB722970FB6F894DEBF0FBE1E
:1033B000CDBF9A8389830BC0E981FA8120818981FD
:1033C0009A8101969A838983822F0E943C19E98110
:1033D000FA818081882381F722960FB6F894DEBFA8
:1033E0000FBECDBFDF91CF910895CF93DF93CDB7BF
:1033F000DEB7EDE9F0E086E0808380E09BE40E94A8
:10340000680FAAE9B0E0EAE9F0E0808188618C9376
:1034100081E090E0DF91CF910895CF93DF93CDB716
:10342000DEB721970FB6F894DEBF0FBECDBF8983FC
:10343000EBE9F0E08081882F90E080729070009737
:10344000B9F3ECE9F0E0898180838981882F90E0ED
:1034500021960FB6F894DEBF0FBECDBFDF91CF919E
:103460000895CF93DF93CDB7DEB7EBE9F0E080812D
:103470008823DCF7ECE9F0E08081992787FD9095BF
:10348000DF91CF910895CF93DF93CDB7DEB7E89763
:103490000FB6F894DEBF0FBECDBF198A84E08A8BC9
:1034A0001D8A80E897E09F8B8E8B8AE792E09C8B49
:1034B0008B8B81E0898F84E08A8F1D8E80E897E076
:1034C0009F8F8E8F8EE792E09C8F8B8F82E0888B10
:1034D00026E332E038AB2FA7CE0141969AAB89ABF9
:1034E00098E09BABE9A9FAA9008029A93AA92F5F26
:1034F0003F4F3AAB29ABEFA5F8A900822FA538A919
:103500002F5F3F4F38AB2FA73BA931503BAB8BA967
:10351000882341F7EEE3F2E0FDABECAB9E01275EC2
:103520003F4F3FAB2EAB38E038AFEEA9FFA900808C
:103530002EA93FA92F5F3F4F3FAB2EABECA9FDA9B2
:1035400000822CA93DA92F5F3F4F3DAB2CAB38AD7E
:10355000315038AF88AD882341F788898093350290
:103560000E94CA0F78940E94CD050E949D00CE0152
:1035700081960E941E0689A19AA1E1E080309E07F3
:1035800009F096C089A5282F30E03EA72DA78DA56C
:103590009EA58230910539F1EDA5FEA5E330F10538
:1035A00034F42DA53EA52130310561F050C08DA524
:1035B0009EA58430910541F1EDA5FEA5E830F10509
:1035C000A9F145C010927902ABE3B0E0EBE3F0E083
:1035D00080818F7D8C93ABE3B0E0EBE3F0E0808102
:1035E0008F7E8C9334C010927902ABE3B0E0EBE3B2
:1035F000F0E080818F7D8C93ABE3B0E0EBE3F0E013
:1036000080818F7E8C9323C081E080937902ABE32D
:10361000B0E0EBE3F0E0808180618C93ABE3B0E05D
:10362000EBE3F0E080818F7D8C9311C082E080938A
:103630007902ABE3B0E0EBE3F0E0808180628C9351
:10364000ABE3B0E0EBE3F0E080818F7E8C93809180
:1036500079028130A9F489A580937A0280917A0257
:10366000882F90E0A0E0B0E0BC01CD010E949E2038
:10367000DC01CB0140E0BC01CD010E946E0218C00C
:10368000809179028230A1F489A580937E02809195
:103690007E02882F90E0A0E0B0E0BC01CD010E9446
:1036A0009E20DC01CB0140E0BC01CD010E946E02F6
:1036B00080E090E0A0E2B1E48B879C87AD87BE8775
:1036C00020E030E04AEF54E46B857C858D859E8553
:1036D0000E94971DDC01CB018F839887A987BA8749
:1036E00020E030E040E85FE36F81788589859A8546
:1036F0000E94B71F88230CF005C081E090E09E83F4
:103700008D8340C020E03FEF4FE757E46F8178851D
:1037100089859A850E944B1F18160CF029C020E05D
:1037200030E040E251E46B857C858D859E850E946A
:10373000971DDC01CB01BC01CD010E94CD1BDC013A
:10374000CB019E838D830FC088EC90E09C838B839C
:103750008B819C810197F1F79C838B838D819E8166
:1037600001979E838D838D819E81009769F7FFCE9F
:103770006F81788589859A850E94CD1BDC01CB01FC
:103780009E838D838D819E819A83898389819A818D
:103790000197F1F79A838983EACEEF92FF920F9314
:1037A0001F937B018C0120E030E040E05FE40E9449
:1037B000811F88237CF020E030E040E05FE4C80116
:1037C000B7010E94391D0E944B206050704080401C
:1037D000904804C0C801B7010E944B201F910F916F
:1037E000FF90EF900895A0E0B0E0E9EFFBE10C94CA
:1037F0004F232C015B01FA01DC019C91923008F40B
:1038000032C1EB018881823008F42CC1943071F40C
:10381000843009F028C1F20191818981981709F457
:1038200022C11DE0412E11E0512E1DC1843009F44A
:1038300019C18230A9F4923009F015C1CA01A20160
:1038400028E0DA010D90AD01EC010992CE01215082
:10385000C1F7E5018981E20199818923818300C152
:10386000923009F4FFC0E201CA80DB80EB018A815B
:103870009B81E2012C813D814E815F81EB01EC80D7
:10388000FD800E811F81B601681B790BDB0177FF7C
:1038900003C0709561957F4F603271050CF05DC07B
:1038A0001A161B065CF566247724430181E090E03C
:1038B000A0E0B0E0062E04C0880F991FAA1FBB1F0E
:1038C0000A94D2F70197A109B1098E219F21A02363
:1038D000B1230097A105B10529F0B1E06B2E712C41
:1038E000812C912C04C016950795F794E7946A955E
:1038F000D2F7E628F728082919293BC0AB2BC9F1D4
:10390000C60ED71E66247724430181E090E0A0E034
:10391000B0E0062E04C0880F991FAA1FBB1F0A948F
:10392000D2F70197A109B10982239323A423B523D8
:103930000097A105B10529F0A1E06A2E712C812C18
:10394000912C04C056954795379527956A95D2F7DF
:1039500026293729482959290CC08C159D0534F092
:103960006C0120E030E040E050E003C0EE24FF2492
:103970008701E2019981E5018981981709F443C023
:10398000992339F0E21AF30A040B150BA8019701E9
:1039900004C02E193F09400B510B57FD08C011827E
:1039A000D382C28224833583468357831DC081E03E
:1039B0008183D382C28288279927DC01821B930BE3
:1039C000A40BB50B84839583A683B7830DC0220F08
:1039D000331F441F551F24833583468357838281B9
:1039E0009381019793838283248135814681578116
:1039F000DA01C9010197A109B1098F5F9F4FAF4F4C
:103A0000BF4328F30BC09183D382C2822E0D3F1D8A
:103A1000401F511F248335834683578383E080836F
:103A200024813581468157815523D4F4C901AA27C1
:103A300097FDA095BA2F81709070A070B0705695C8
:103A4000479537952795822B932BA42BB52B8483F1
:103A50009583A683B7838281938101969383828322
:103A60002F0101C02501C201E0E1CDB7DEB70C9402
:103A70006B23A0E2B0E0EFE3FDE10C9459236983EE
:103A80007A838B839C832D833E834F83588709E001
:103A9000E02EF12CEC0EFD1EB701CE0101960E9426
:103AA0003E228E010F5E1F4FB801CE0105960E9487
:103AB0003E228A8991E089278A8BAE01475E5F4F5B
:103AC000B801C7010E94F31B0E945E21E6E0A096A8
:103AD0000C947523A0E2B0E0E0E7FDE10C945923DB
:103AE00069837A838B839C832D833E834F8358879E
:103AF00089E0E82EF12CEC0EFD1EB701CE010196F7
:103B00000E943E228E010F5E1F4FB801CE01059626
:103B10000E943E22AE01475E5F4FB801C7010E947E
:103B2000F31B0E945E21E6E0A0960C947523A0E2B0
:103B3000B0E0EDE9FDE10C944F2369837A838B8338
:103B40009C832D833E834F83588799E0E92EF12C87
:103B5000EC0EFD1EB701CE0101960E943E228E01A1
:103B60000F5E1F4FB801CE0105960E943E22998537
:103B7000923088F089898230C0F0943019F4823014
:103B800029F009C0843029F4923079F46DE071E0B5
:103B9000C6C0923041F420E09A858A89981321E0CA
:103BA0002A87B701BCC0823041F420E09A858A8917
:103BB000981321E02A8BB801B2C0CD84DE84EF8453
:103BC000F8880D891E892F89388D882499245401FD
:103BD00040E050E060E070E0442455243201E0E031
:103BE000F0E0C60181709070892BD9F0800E911E93
:103BF000A21EB31EDB01CA01840D951DA61DB71DB3
:103C000040E050E060E070E080169106A206B30646
:103C100020F441E050E060E070E0480F591F6A1F57
:103C20007B1F440C551C661C771C37FF08C081E0C5
:103C300090E0A0E0B0E0482A592A6A2A7B2A31960F
:103C4000E032F10549F0000F111F221F331FF694D7
:103C5000E794D794C794C5CF8B899C892B853C85E5
:103C6000820F931F02969C8F8B8F1A8E9A858A895A
:103C7000981711F081E08A8F2B8D3C8D17C0CA01F7
:103C800081709070892B61F0B694A7949794879473
:103C900080E090E0A0E0B0E8882A992AAA2ABB2A0E
:103CA00076956795579547952F5F3F4F77FDE7CFFF
:103CB000C9010BC0440F551F661F771FB7FC416039
:103CC000880C991CAA1CBB1C01974030A0E05A0725
:103CD000A0E06A07A0E47A0768F39C8F8B8FDB0172
:103CE000CA018F779070A070B07080349105A105E3
:103CF000B10561F447FD0AC081149104A104B10427
:103D000029F0405C5F4F6F4F7F4F40784D8F5E8F43
:103D10006F8F78A383E0898FBE01675E7F4FCB01F1
:103D20000E945E21E0E1A0960C946B23A8E1B0E034
:103D3000ECE9FEE10C94552369837A838B839C83A1
:103D40002D833E834F8358878E01075F1F4FB80135
:103D5000CE0101960E943E2281E1E82EF12CEC0E6C
:103D6000FD1EB701CE0105960E943E2239853230F4
:103D7000F8F02989223010F4B70186C08A859A8923
:103D800089278A87343011F0323029F4321781F4D0
:103D90006DE071E079C0243039F41D861E861F86DF
:103DA000188A1C861B8604C0223021F484E089878F
:103DB000B8016AC06B857C858B899C89681B790BEF
:103DC0007C876B872D853E854F8558898D899E8997
:103DD000AF89B88D281739074A075B0740F4220FCF
:103DE000331F441F551F615070407C876B87A12C87
:103DF000B12CC12C10E4D12EEE24FF24870160E009
:103E000070E0281739074A075B0740F0EA28FB28CB
:103E10000C291D29281B390B4A0B5B0BD694C79420
:103E2000B794A794220F331F441F551F6F5F7F4F16
:103E30006F31710531F7D801C7018F779070A0708D
:103E4000B07080349105A105B105B9F4E7FC15C047
:103E5000211531054105510581F080E490E0A0E095
:103E6000B0E0E80EF91E0A1F1B1F80E89FEFAFEFBE
:103E7000BFEFE822F9220A231B23ED86FE860F8777
:103E8000188BBE01675F7F4FCB010E945E21EAE085
:103E900068960C947123A8E1B0E0E1E5FFE10C9491
:103EA000592369837A838B839C832D833E834F833D
:103EB000588789E0E82EF12CEC0EFD1EB701CE01EB
:103EC00001960E943E228E010F5E1F4FB801CE0167
:103ED00005960E943E228985823060F08989823071
:103EE00048F0B801C7010E94AE22282F332727FDD2
:103EF000309502C02FEF3FEFC901E6E068960C94C1
:103F00007523A8E1B0E0E7E8FFE10C945923698349
:103F10007A838B839C832D833E834F83588789E0EC
:103F2000E82EF12CEC0EFD1EB701CE0101960E9489
:103F30003E228E010F5E1F4FB801CE0105960E94F2
:103F40003E228985823060F08989823048F0B8014C
:103F5000C7010E94AE22282F332727FD309502C0CB
:103F60002FEF3FEFC901E6E068960C947523A8E1B6
:103F7000B0E0EDEBFFE10C94592369837A838B83E6
:103F80009C832D833E834F83588789E0E82EF12C54
:103F9000EC0EFD1EB701CE0101960E943E228E015D
:103FA0000F5E1F4FB801CE0105960E943E22898503
:103FB000823060F08989823048F0B801C7010E94E0
:103FC000AE22282F332727FD309502C021E030E0B4
:103FD000C901E6E068960C947523A8E0B0E0E3EF31
:103FE000FFE10C9456239B01AC0183E08983DA0145
:103FF000C9018827B7FD83959927AA27BB27B82E23
:10400000211531054105510519F482E089833AC033
:104010008823A9F0203080E0380780E0480780E856
:10402000580729F460E070E080E09FEC30C0EE2497
:10403000FF248701E21AF30A040B150B02C0790171
:104040008A018EE1C82ED12CDC82CB82ED82FE82E9
:104050000F831887C801B7010E9411210197181614
:10406000190684F4082E04C0EE0CFF1C001F111F5B
:104070000A94D2F7ED82FE820F831887C81AD90AF4
:10408000DC82CB82BA82CE0101960E945E21E9E0F9
:1040900028960C947223ACE0B0E0E1E5F0E20C94D9
:1040A0005D2369837A838B839C83BE016B5F7F4F23
:1040B000CE0101960E943E228D818230A9F182308C
:1040C00098F1843021F48E81882359F40FC02F8118
:1040D000388537FD29C06E812F31310564F06623A4
:1040E00029F020E030E040E050E822C02FEF3FEF21
:1040F0004FEF5FE71DC08EE190E0821B930B298597
:104100003A854B855C8504C056954795379527952C
:104110008A95D2F7662361F05095409530952195A8
:104120003F4F4F4F5F4F04C020E030E040E050E091
:10413000CA01B901E2E02C960C947923A8E0B0E022
:10414000E4EAF0E20C9457237B018C0161157105C0
:104150008105910519F482E089835AC083E089833F
:104160008EE1C82ED12CDC82CB82ED82FE820F83C1
:104170001887C801B7010E941121BC01615070402D
:1041800077FF33C0EE27FF27E61BF70B20E030E078
:1041900040E050E081E090E0A0E0B0E00E2E04C0EE
:1041A000880F991FAA1FBB1F0A94D2F70197A10974
:1041B000B1098E219F21A023B1230097A105B1054C
:1041C00021F021E030E040E050E004C01695079572
:1041D000F794E794EA95D2F72E293F29402B512BEB
:1041E0002D833E834F8358870FC06115710581F081
:1041F000062E04C0EE0CFF1C001F111F0A94D2F7FC
:10420000ED82FE820F831887C61AD70ADC82CB8222
:104210001A82CE0101960E945E21E8E028960C9455
:104220007323EF92FF920F931F939B01AC012030F9
:1042300080E0380781E0480780E0580780F42F3F8E
:1042400031054105510509F020F4EE24FF248701D2
:1042500019C068E0E62EF12C012D112D13C020307D
:1042600080E0380780E0480781E0580730F490E1AB
:10427000E92EF12C012D112D05C088E1E82EF12C3D
:10428000012D112D80E290E0A0E0B0E08E199F0991
:10429000A00BB10B04C05695479537952795EA9426
:1042A000D2F7F901EB5EFE4F2081821B9109A10933
:1042B000B1091F910F91FF90EF9008959F92AF92D7
:1042C000BF92CF92DF92EF92FF920F931F93EE2453
:1042D000FF248701FC01248135814681578191802B
:1042E0008081823010F44061A2C0843009F49BC008
:1042F000823029F420E030E040E050E005C0211594
:1043000031054105510519F4E0E0F0E092C08281E9
:1043100093816FEF823896070CF05AC062E87FEF06
:10432000681B790B6A3171052CF020E030E040E029
:1043300050E02AC0AA24BB24650181E090E0A0E0FF
:10434000B0E0062E04C0880F991FAA1FBB1F0A9455
:10435000D2F70197A109B10982239323A423B5239E
:104360000097A105B10529F071E0A72EB12CC12C51
:10437000D12C04C056954795379527956A95D2F765
:104380002A293B294C295D29DA01C9018F779070D0
:10439000A070B07080349105A105B10539F427FFF4
:1043A00009C0205C3F4F4F4F5F4F04C0215C3F4F1F
:1043B0004F4F5F4F80E090E0203060E0360760E0D4
:1043C000460760E4560710F081E090E0FC0123C04E
:1043D0008038910544F5FC01E158FF4FDA01C9012D
:1043E0008F779070A070B07080349105A105B105F1
:1043F00039F427FF09C0205C3F4F4F4F5F4F04C087
:10440000215C3F4F4F4F5F4F57FF05C05695479573
:1044100037952795319687E0569547953795279597
:104420008A95D1F706C020E030E040E050E0EFEFA1
:10443000F0E0E22EF32E942F9F77802F8078892B47
:104440009E2F9795992797958F77082F092B9E2F49
:104450009695812F8078892B9794992497948F77BC
:10446000182F1929C801B7011F910F91FF90EF90E4
:10447000DF90CF90BF90AF909F900895CF93DF9340
:10448000FC01DB01208131819281492F4F7750E07F
:10449000991F9927991F8381E82FEE0FE92B6E2F23
:1044A00070E0881F8827881FED018983EE2371F54E
:1044B000211531054105510511F482E02FC06E57D9
:1044C0007040FD017383628367E0220F331F441F36
:1044D000551F6A95D1F783E08C930AC0220F331FD2
:1044E000441F551FED018A819B8101979B838A831D
:1044F0002030E0E03E07E0E04E07E0E45E0770F3C6
:10450000ED012C833D834E835F8325C0EF3F79F41B
:10451000211531054105510519F484E08C931BC028
:1045200044FF03C081E08C9311C01C920FC06F57F1
:104530007040ED017B836A8383E08C9387E0220FD8
:10454000331F441F551F8A95D1F75064FD01248302
:10455000358346835783DF91CF910895CF93DF93BF
:10456000DC01FB019C91923008F446C080818230CE
:1045700008F442C0943049F4ED016981843079F542
:10458000818190E0861B91093CC0843021F09230FB
:1045900031F48230A1F18181882371F52AC0ED01C7
:1045A00069818230E1F081816817C9F4ED012A81C7
:1045B0003B8182819381821793078CF028173907FA
:1045C000B4F0ED018C819D81AE81BF812481358164
:1045D00046815781281739074A075B0718F4662375
:1045E00041F40AC082179307A407B50740F4662375
:1045F00019F48FEF9FEF05C081E090E002C080E0EA
:1046000090E0DF91CF91089597FB092E07260AD0FD
:1046100077FD04D02ED006D000201AF47095619555
:104620007F4F0895F6F7909581959F4F0895A1E2E9
:104630001A2EAA1BBB1BFD010DC0AA1FBB1FEE1F1C
:10464000FF1FA217B307E407F50720F0A21BB30B67
:10465000E40BF50B661F771F881F991F1A9469F7E3
:1046600060957095809590959B01AC01BD01CF013F
:104670000895AA1BBB1B51E107C0AA1FBB1FA617A9
:10468000B70710F0A61BB70B881F991F5A95A9F7FB
:1046900080959095BC01CD0108952F923F924F9245
:1046A0005F926F927F928F929F92AF92BF92CF92C2
:1046B000DF92EF92FF920F931F93CF93DF93CDB7CB
:1046C000DEB7CA1BDB0B0FB6F894DEBF0FBECDBF43
:1046D00009942A88398848885F846E847D848C8414
:1046E0009B84AA84B984C884DF80EE80FD800C811D
:1046F0001B81AA81B981CE0FD11D0FB6F894DEBF00
:0A4700000FBECDBFED010895FFCFFD
:10470A0028F91C58C94A0AF80848FFDFF7000000D0
:10471A000000000000000102020303030304040472
:10472A000404040404050505050505050505050534
:10473A000505050505060606060606060606060614
:10474A0006060606060606060606060606060606FF
:10475A0006060606060707070707070707070707E4
:10476A0007070707070707070707070707070707CF
:10477A0007070707070707070707070707070707BF
:10478A0007070707070707070707070707070707AF
:10479A000707070707080808080808080808080894
:1047AA00080808080808080808080808080808087F
:1047BA00080808080808080808080808080808086F
:1047CA00080808080808080808080808080808085F
:1047DA00080808080808080808080808080808084F
:1047EA00080808080808080808080808080808083F
:1047FA00080808080808080808080808080808082F
:10480A00080808080808080808080808080808081E
:06481A0008080808080070
:00000001FF
