:100000000C9446000C9465000C9465000C946500FB
:100010000C9465000C9465000C9465000C946500CC
:100020000C9465000C9465000C9465000C946500BC
:100030000C9465000C9465000C9465000C946500AC
:100040000C9465000C94140B0C9465000C946500E2
:100050000C9465000C9465000C9465000C9465008C
:100060000C9465000C9465000C9465000C9465007C
:100070000C9465000C9465000C9465000C9465006C
:100080000C9465000C9465000C94650011241FBE4F
:10009000CFEFD0E1DEBFCDBF12E0A0E0B1E0E4E8F9
:1000A000FAE200E00BBF02C007900D92A631B10743
:1000B000D9F712E0A6E1B2E001C01D92A333B10767
:1000C000E1F70E9467000C9441150C940000CF9357
:1000D000DF93CDB7DEB72E970FB6F894DEBF0FBE15
:1000E000CDBF78940E9426070E94F60180E091E03F
:1000F00090931A028093190210921B0288E0809359
:100100001C0210922602E9E3F0E08081882F90E043
:100110008270907095958795009779F0ABE3B0E089
:10012000EBE3F0E0808180648C93ABE3B0E0EBE341
:10013000F0E0808180618C930EC0ABE3B0E0EBE334
:10014000F0E080818F7B8C93ABE3B0E0EBE3F0E0F9
:1001500080818F7E8C93E9E3F0E08081882F90E0AE
:10016000847090709595879595958795009779F00F
:10017000ABE3B0E0EBE3F0E0808180648C93ABE331
:10018000B0E0EBE3F0E0808180628C930EC0ABE3E3
:10019000B0E0EBE3F0E080818F7B8C93ABE3B0E0E9
:1001A000EBE3F0E080818F7D8C93E9E3F0E08081E8
:1001B000882F90E088709070959587959595879594
:1001C000959587950097A1F081E080932602109283
:1001D0002602ABE3B0E0EBE3F0E0808180688C9333
:1001E00080E48093210289E192E00E940A0808C01D
:1001F000ABE3B0E0EBE3F0E090818FE789238C93F1
:1002000087E292E00E94770780912702909128026E
:1002100021E08030920709F076CF80912F02803460
:1002200069F481E08093260210922602ABE3B0E0ED
:10023000EBE3F0E0808180688C9308C0ABE3B0E032
:10024000EBE3F0E090818FE789238C9380912F027C
:100250008130E1F481E080932502ABE3B0E0EBE391
:10026000F0E0808180648C9380912F02882F90E051
:10027000A0E0B0E0BC01CD010E945B12DC01CB012B
:1002800040E0BC01CD010E94C70311C080912F0244
:10029000803121F480912F02803249F010922502A2
:1002A000ABE3B0E0EBE3F0E080818F7B8C93809157
:1002B0002502813031F580912F02803141F4ABE38A
:1002C000B0E0EBE3F0E0808180618C9307C0ABE3AA
:1002D000B0E0EBE3F0E080818F7E8C9380912F0281
:1002E000803241F4ABE3B0E0EBE3F0E08081806288
:1002F0008C9307C0ABE3B0E0EBE3F0E080818F7D4F
:100300008C9380E090E0A0E2B1E48B879C87AD877E
:10031000BE8720E030E04AEF54E46B857C858D8514
:100320009E850E94540FDC01CB018F839887A9879B
:10033000BA8720E030E040E85FE36F817885898507
:100340009A850E94741188230CF005C081E090E02A
:100350009E838D8340C020E03FEF4FE757E46F81DD
:10036000788589859A850E94081118160CF029C095
:1003700020E030E040E251E46B857C858D859E85F0
:100380000E94540FDC01CB01BC01CD010E948A0DFB
:10039000DC01CB019E838D830FC088EC90E09C83B1
:1003A0008B838B819C810197F1F79C838B838D815B
:1003B0009E8101979E838D838D819E81009769F731
:1003C000A2CE6F81788589859A850E948A0DDC018D
:1003D000CB019E838D838D819E819A8389838981C0
:1003E0009A810197F1F79A8389838DCECF93DF931A
:1003F000CDB7DEB7AAE3B0E0EAE3F0E08081816048
:100400008C93ABE3B0E0EBE3F0E0808181608C9310
:10041000AAE3B0E0EAE3F0E080818D7F8C93AAE369
:10042000B0E0EAE3F0E080818B7F8C93AAE3B0E058
:10043000EAE3F0E08081877F8C93AAE3B0E0EAE30F
:10044000F0E0808180618C93AAE3B0E0EAE3F0E021
:10045000808180628C93AAE3B0E0EAE3F0E08081DF
:1004600080648C93AAE3B0E0EAE3F0E080818068E6
:100470008C93A4E3B0E0E4E3F0E080818E7F8C9382
:10048000A4E3B0E0E4E3F0E080818D7F8C93A4E30B
:10049000B0E0E4E3F0E080818B7F8C93A4E3B0E0F4
:1004A000E4E3F0E08081877F8C9324E040E060E02B
:1004B00080E00E94410B82E390E00E941B0C0E94AE
:1004C000B50341E061E081E00E946902DF91CF91D4
:1004D0000895CF93DF93CDB7DEB727970FB6F89483
:1004E000DEBF0FBECDBF8B836C834D838B81886451
:1004F000282F8C81882F90E0880F991F282B8C81C2
:10050000882F90E0880F991F880F991F822B8A836C
:100510008A810E94D50C89838981813029F481E008
:1005200090E09F838E8336C081E00E94EF0C898328
:100530008981813029F481E090E09F838E832AC0F5
:1005400080E60E94EF0C89838981813029F481E063
:1005500090E09F838E831EC00E947F0D8A810E943F
:10056000D50C89838981813029F481E090E09F83D3
:100570008E8310C080E00E94EF0C898389818130D6
:1005800029F481E090E09F838E8304C00E947F0D58
:100590001F821E828E819F8127960FB6F894DEBF40
:1005A0000FBECDBFDF91CF910895CF93DF93CDB72D
:1005B000DEB72B970FB6F894DEBF0FBECDBF9E837C
:1005C0008D836F83488729878F818864282F88854A
:1005D000882F90E0880F991F282B8885882F90E01E
:1005E000880F991F880F991F822B8A838A810E9406
:1005F000D50C89838981813029F481E090E09B8743
:100600008A8775C080E00E94EF0C898389818130E0
:1006100029F481E090E09B878A8769C00E947F0D62
:100620008A810E94270D89838981813029F481E0A4
:1006300090E09B878A875BC0CE010396019660E0BD
:100640000E94410D89838981813029F481E090E005
:100650009B878A874CC0CE01039661E00E94410DC2
:1006600089838981813029F481E090E09B878A87A2
:100670003EC00E947F0D8B819C81992374F48B81F5
:100680009C81959587959595879595958795959551
:100690008795906F9C838B830CC08B819C819595F3
:1006A00087959595879595958795959587959C833D
:1006B0008B838B819C81AA2797FDA095BA2FBC01C3
:1006C000CD010E94AA11DC01CB0120E030E040E81E
:1006D0005DE3BC01CD010E94540FDC01CB01ED8133
:1006E000FE8180839183A283B3831B861A868A85C9
:1006F0009B852B960FB6F894DEBF0FBECDBFDF9162
:10070000CF910895CF93DF93CDB7DEB723970FB680
:10071000F894DEBF0FBECDBF89836A834B83ABE302
:10072000B0E0EBE3F0E080818E7F8C9360E070E0DE
:1007300089810E94EC0B60E070E08A810E94EC0BE2
:1007400060E070E08B810E94EC0BABE3B0E0EBE388
:10075000F0E0808181608C9323960FB6F894DEBF21
:100760000FBECDBFDF91CF910895CF93DF93CDB76B
:10077000DEB780910A0190910A0120910A01482F69
:10078000692F822F0E948203DF91CF910895CF932A
:10079000DF93CDB7DEB767970FB6F894DEBF0FBE15
:1007A000CDBF6C837D838E839F8348878885282F68
:1007B00030E03F8B2E8B8E899F898130910509F423
:1007C00062C12E893F892230310509F469C28E89C0
:1007D0009F89009709F028C320E030EC49E754E4F2
:1007E0006C817D818E819F810E94081118166CF0AA
:1007F00020E030E046EC52EC6C817D818E819F815F
:100800000E94741188230CF005C021E030E03D8B7C
:100810002C8B11C320E030E040E050E06C817D8102
:100820008E819F810E94081118160CF066C020E08E
:1008300030E048EC52E46C817D818E819F810E9482
:100840005310DC01CB0120E030E040E050E0BC017F
:10085000CD010E94081118160CF01BC020E030E0FA
:1008600048EC52E46C817D818E819F810E945310FF
:10087000DC01CB011B8A20E030E040E85FE3BC01F3
:10088000CD010E943E1188230CF41DC031E03B8B4A
:100890001AC020E030E048EC52EC6C817D818E8102
:1008A0009F810E945310DC01CB011B8A20E030E0C5
:1008B00040E85FE3BC01CD010E943E1188230CF4A7
:1008C00002C081E08B8B9B899923A1F020E030E06E
:1008D00048EC52E46C817D818E819F810E9453108F
:1008E000DC01CB01BC01CD010E948A0DDC01CB01F2
:1008F0008B8305C08AE08B8302C08BE08B8320E072
:1009000030E040E251E46C817D818E819F810E94C4
:100910005310DC01CB0120E030E040E050E0BC01AE
:10092000CD010E94081118160CF01BC020E030E029
:1009300040E251E46C817D818E819F810E94531041
:10094000DC01CB011A8A20E030E040E85FE3BC0123
:10095000CD010E943E1188230CF41DC021E02A8B9A
:100960001AC020E030E040E251EC6C817D818E8144
:100970009F810E945310DC01CB011A8A20E030E0F5
:1009800040E85FE3BC01CD010E943E1188230CF4D6
:1009900002C031E03A8B8A898823E9F16C817D813C
:1009A0008E819F810E940812DC01CB0124E630E099
:1009B000B9010E94C1148A309105ACF06C817D812F
:1009C0008E819F810E940812DC01CB0124E630E079
:1009D000B9010E94C1142AE030E0B9010E94C1149B
:1009E000CB01898B15C06C817D818E819F810E9496
:1009F0000812DC01CB0124E630E0B9010E94C114E9
:100A00002AE030E0B9010E94C114CB018195898BA5
:100A100099899A8302C08AE08A836C817D818E8164
:100A20009F810E940812DC01CB012AE030E0B9016D
:100A30000E94C114988B8F872F85388933233CF40B
:100A40008F859889909581959F4F988B8F879F85EB
:100A500099838981882F90E0FC01E050FF4F20812D
:100A60008A81882F90E0FC01E050FF4F30818B811C
:100A7000882F90E0FC01E050FF4F8081422F632FD0
:100A80000E948203D6C120E030E048EC52E46C8141
:100A90007D818E819F810E943E1188236CF420E02D
:100AA00030E040E151EC6C817D818E819F810E941C
:100AB000741188230CF005C021E030E03D8B2C8BB5
:100AC000BAC120E030E040E050E06C817D818E8151
:100AD0009F810E94081118160CF066C020E030E0DB
:100AE00040E251E46C817D818E819F810E94531090
:100AF000DC01CB0120E030E040E050E0BC01CD0162
:100B00000E94081118160CF01BC020E030E040E2F3
:100B100051E46C817D818E819F810E945310DC01A4
:100B2000CB011E8620E030E040E85FE3BC01CD0150
:100B30000E943E1188230CF41DC031E03E871AC08C
:100B400020E030E040E251EC6C817D818E819F811C
:100B50000E945310DC01CB011E8620E030E040E80B
:100B60005FE3BC01CD010E943E1188230CF402C05A
:100B700081E08E879E859923A1F020E030E040E25D
:100B800051E46C817D818E819F810E945310DC0134
:100B9000CB01BC01CD010E948A0DDC01CB018B830E
:100BA00005C08AE08B8302C08BE08B836C817D81E2
:100BB0008E819F810E940812DC01CB012AE030E087
:100BC000B9010E94C1149D878C872C853D853323F4
:100BD0003CF48C859D85909581959F4F9D878C8752
:100BE0009C859A8320E030E040E050E06C817D817C
:100BF0008E819F810E94081118160CF019C020E008
:100C000030E040E251E46C817D818E819F810E94C1
:100C1000540FDC01CB01BC01CD010E940812DC01A4
:100C2000CB012AE030E0B9010E94C1148B8718C0C3
:100C300020E030E040E251EC6C817D818E819F812B
:100C40000E94540FDC01CB01BC01CD010E940812AF
:100C5000DC01CB012AE030E0B9010E94C1148B878E
:100C60002B8529838981882F90E0FC01E050FF4F7C
:100C700030818A81882F90E0FC01E050FF4F908105
:100C800080910C01292F28238B81882F90E0FC0173
:100C9000E050FF4F8081432F622F0E948203C9C022
:100CA00020E030E040E251E46C817D818E819F81C3
:100CB0000E943E1188236CF420E030E040E050E0D8
:100CC0006C817D818E819F810E94741188230CF03C
:100CD00005C081E090E09D8B8C8BADC06C817D81E7
:100CE0008E819F810E948A0DDC01CB018B8320E0E5
:100CF00030E040E050E06C817D818E819F810E94D8
:100D0000081118160CF019C020E030E040E251E460
:100D10006C817D818E819F810E94540FDC01CB010B
:100D2000BC01CD010E940812DC01CB012AE030E0B9
:100D3000B9010E94C1148A8718C020E030E040E267
:100D400051EC6C817D818E819F810E94540FDC016A
:100D5000CB01BC01CD010E940812DC01CB012AE0CD
:100D600030E0B9010E94C1148A879A859A8320E0F5
:100D700030E040E050E06C817D818E819F810E9457
:100D8000081118160CF019C020E030E048EC52E4CD
:100D90006C817D818E819F810E94540FDC01CB018B
:100DA000BC01CD010E940812DC01CB012AE030E039
:100DB000B9010E94C114898718C020E030E048ECD6
:100DC00052EC6C817D818E819F810E94540FDC01E9
:100DD000CB01BC01CD010E940812DC01CB012AE04D
:100DE00030E0B9010E94C11489872985298389814E
:100DF000882F90E0FC01E050FF4F30818A81882FDE
:100E000090E0FC01E050FF4F20818B81882F90E023
:100E1000FC01E050FF4F908180910C018923432F0A
:100E2000622F0E94820305C081E090E09D8B8C8B35
:100E300002C01D8A1C8A8C899D8967960FB6F8941A
:100E4000DEBF0FBECDBFDF91CF910895CF93DF936B
:100E5000CDB7DEB7A4E3B0E0E4E3F0E080818062E8
:100E60008C93A4E3B0E0E4E3F0E080818F7E8C9388
:100E700024E040E060E080E00E94410B0E94F10924
:100E800060E08CE00E940B0A60E08DE00E940B0A9B
:100E900060E08AE20E940B0A60E989E20E940B0A84
:100EA00062E088E20E940B0A60E080E60E940B0A82
:100EB00060E080E70E940B0A60E084E20E940B0A77
:100EC00060E085E20E940B0A60E086E20E940B0A65
:100ED00060E087E20E940B0A61E08BE20E940B0A4D
:100EE00068E08FE00E940B0ADF91CF910895CF93C5
:100EF000DF93CDB7DEB724970FB6F894DEBF0FBEF1
:100F0000CDBF9C838B83E3E3F0E08081882F90E06A
:100F1000807190709595879595958795959587950E
:100F200095958795009779F7A5E3B0E0E5E3F0E0C4
:100F300080818F7D8C9360E070E080E90E94EC0BF3
:100F4000CE010296BC0180E00E94EC0B8A81882FC2
:100F500090E0880F991F880F991F880F991FEB81C8
:100F6000FC8191838083CE010296BC0180E00E94C7
:100F7000EC0BEB81FC81208131818A818295869501
:100F80008770882F90E0822B932BEB81FC819183DB
:100F90008083CE010296BC0180E00E94EC0BCE0162
:100FA0000296BC0180E00E94EC0BCE010296BC01CF
:100FB00080E00E94EC0B8A818F70EB81FC8183833F
:100FC000198214C0CE010296BC0180E00E94EC0B95
:100FD0008981282F30E04A818B819C81820F931F69
:100FE000FC013496408389818F5F8983EB81FC818A
:100FF00093818981891730F340E061E08CE20E949F
:10100000DC0A24960FB6F894DEBF0FBECDBFDF9189
:10101000CF910895CF93DF93CDB7DEB724970FB666
:10102000F894DEBF0FBECDBF9C838B83EB81FC8128
:1010300083818A83EB81FC8180819181969587955C
:101040009695879596958795682F81E30E940B0A60
:10105000EB81FC818081918187708295880F807EF1
:10106000682F82E30E940B0AEB81FC818281882336
:1010700039F08A818064682F85E30E940B0A1CC0C6
:101080006A8185E30E940B0A198212C08981282F88
:1010900030E08B819C81820F931FFC0134969081FC
:1010A00089818A5C692F0E940B0A89818F5F8983FD
:1010B00099818A81981750F380E090E00E94690836
:1010C00024960FB6F894DEBF0FBECDBFDF91CF914F
:1010D0000895CF93DF93CDB7DEB722970FB6F8947C
:1010E000DEBF0FBECDBF9A83898389819A81833009
:1010F0009105F0F4A5E3B0E0E5E3F0E080818F7DB9
:101100008C9329813A8181E090E002C0880F991F79
:101110002A95E2F7982F80E8892B60E070E00E9422
:10112000EC0BA5E3B0E0E5E3F0E0808180628C9316
:1011300022960FB6F894DEBF0FBECDBFDF91CF91E0
:101140000895CF93DF93CDB7DEB722970FB6F8940B
:10115000DEBF0FBECDBF9A83898389819A81969520
:1011600087959695879596958795682F80E20E943A
:101170000B0A898187708295880F807E682F81E2B3
:101180000E940B0A22960FB6F894DEBF0FBECDBFA9
:10119000DF91CF910895CF93DF93CDB7DEB722973C
:1011A0000FB6F894DEBF0FBECDBF9A8389838981C5
:1011B0009A81969587959695879596958795682FA8
:1011C00084E20E940B0A898187708295880F807E55
:1011D000682F85E20E940B0A22960FB6F894DEBFB4
:1011E0000FBECDBFDF91CF910895CF93DF93CDB7E1
:1011F000DEB722970FB6F894DEBF0FBECDBF9A833D
:10120000898389819A8196958795969587959695F4
:101210008795682F80E00E940B0A898187708295EC
:10122000880F807E682F81E00E940B0A22960FB6FD
:10123000F894DEBF0FBECDBFDF91CF910895CF935D
:10124000DF93CDB7DEB722970FB6F894DEBF0FBE9F
:10125000CDBF9A83898389819A8196958795969542
:10126000879596958795682F84E00E940B0A89815F
:1012700087708295880F807E682F85E00E940B0A18
:1012800022960FB6F894DEBF0FBECDBFDF91CF918F
:101290000895CF93DF93CDB7DEB722970FB6F894BA
:1012A000DEBF0FBECDBF9A83898389819A819695CF
:1012B00087959695879596958795682F88E00E94E3
:1012C0000B0A898187708295880F807E682F89E05C
:1012D0000E940B0A22960FB6F894DEBF0FBECDBF58
:1012E000DF91CF910895CF93DF93CDB7DEB72297EB
:1012F0000FB6F894DEBF0FBECDBF9A838983898174
:101300009A81969587959695879596958795682F56
:1013100080E10E940B0A898187708295880F807E08
:10132000682F81E10E940B0A22960FB6F894DEBF67
:101330000FBECDBFDF91CF910895CF93DF93CDB78F
:10134000DEB722970FB6F894DEBF0FBECDBF9A83EB
:10135000898389819A8196958795969587959695A3
:101360008795682F84E10E940B0A89818770829596
:10137000880F807E682F85E10E940B0A22960FB6A7
:10138000F894DEBF0FBECDBFDF91CF910895CF930C
:10139000DF93CDB7DEB722970FB6F894DEBF0FBE4E
:1013A000CDBF9A83898389819A81969587959695F1
:1013B000879596958795682F88E10E940B0A898109
:1013C00087708295880F807E682F89E10E940B0AC2
:1013D00022960FB6F894DEBF0FBECDBFDF91CF913E
:1013E0000895CF93DF93CDB7DEB7A5E3B0E0E5E393
:1013F000F0E080818F7D8C9360E070E080EC0E9453
:10140000EC0BA5E3B0E0E5E3F0E0808180628C9333
:10141000DF91CF910895CF93DF93CDB7DEB72297B9
:101420000FB6F894DEBF0FBECDBF89836A83A5E3F4
:10143000B0E0E5E3F0E080818F7D8C9360E070E0C8
:1014400082E00E94EC0B60E070E089810E94EC0B6E
:1014500060E070E08A810E94EC0BA5E3B0E0E5E378
:10146000F0E0808180628C9322960FB6F894DEBF04
:101470000FBECDBFDF91CF910895CF93DF93CDB74E
:10148000DEB722970FB6F894DEBF0FBECDBF8A83BA
:10149000A5E3B0E0E5E3F0E080818F7D8C9360E030
:1014A00070E083E00E94EC0B60E070E08A810E94B3
:1014B000EC0BCE010196BC0180E00E94EC0BA5E391
:1014C000B0E0E5E3F0E0808180628C938981882F31
:1014D00090E022960FB6F894DEBF0FBECDBFDF912D
:1014E000CF910895CF93DF93CDB7DEB721970FB695
:1014F000F894DEBF0FBECDBFA5E3B0E0E5E3F0E0BA
:1015000080818F7D8C9360E070E080EA0E94EC0B1C
:10151000CE010196BC0180E00E94EC0BCE01019649
:10152000BC0180E00E94EC0BA5E3B0E0E5E3F0E055
:10153000808180628C938981882F90E021960FB6FC
:10154000F894DEBF0FBECDBFDF91CF910895CF934A
:10155000DF93CDB7DEB721970FB6F894DEBF0FBE8D
:10156000CDBFA5E3B0E0E5E3F0E080818F7D8C9313
:1015700060E070E080EB0E94EC0BCE010196BC01B4
:1015800080E00E94EC0BCE010196BC0180E00E943D
:10159000EC0BA5E3B0E0E5E3F0E0808180628C93A2
:1015A0008981882F90E021960FB6F894DEBF0FBE98
:1015B000CDBFDF91CF910895CF93DF93CDB7DEB745
:1015C00023970FB6F894DEBF0FBECDBF89836A8321
:1015D0004B83A5E3B0E0E5E3F0E080818F7D8C9361
:1015E00060E070E083E00E94EC0B60E070E08981D5
:1015F0000E94EC0B60E070E08A810E94EC0B60E0DE
:1016000070E08B810E94EC0BA5E3B0E0E5E3F0E035
:10161000808180628C9323960FB6F894DEBF0FBE54
:10162000CDBFDF91CF9108951F920F920FB60F9209
:1016300011242F933F934F935F936F937F938F93D7
:101640009F93AF93BF93EF93FF93CF93DF93CDB768
:10165000DEB7E0911702F09118020995DF91CF9162
:10166000FF91EF91BF91AF919F918F917F916F917A
:101670005F914F913F912F910F900FBE0F901F9050
:101680001895CF93DF93CDB7DEB724970FB6F894B4
:10169000DEBF0FBECDBF89836A834B832C83A7E354
:1016A000B0E0E7E3F0E0808187608C93A7E3B0E0EF
:1016B000E7E3F0E0908187EF89238C93EDE2F0E09F
:1016C0008981882F90E0880F991F880F991F880FB4
:1016D000991F282F20658A81882F90E0880F991FF5
:1016E000880F991F282B8B81882F90E0880F991FD6
:1016F00082959295907F9827807F9827822B808370
:101700008C81833031F08C81843019F08C8187306A
:1017100039F4ADE2B0E0EDE2F0E0808181608C93DD
:101720008C81853038F0ADE2B0E0EDE2F0E0808110
:1017300082608C938C81813031F08C81833019F000
:101740008C81853039F4AEE2B0E0EEE2F0E08081E9
:1017500081608C9324960FB6F894DEBF0FBECDBF88
:10176000DF91CF910895CF93DF93CDB7DEB7229766
:101770000FB6F894DEBF0FBECDBF9A838983A7E36F
:10178000B0E0E7E3F0E0808188608C93A7E3B0E00D
:10179000E7E3F0E0908188EF89238C93EDE2F0E0BD
:1017A00080E4808389819A81009769F089819A8198
:1017B0009093180280931702ADE2B0E0EDE2F0E002
:1017C000808180688C9322960FB6F894DEBF0FBE9E
:1017D000CDBFDF91CF910895CF93DF93CDB7DEB723
:1017E00023970FB6F894DEBF0FBECDBF89837B83EE
:1017F0006A83EFE2F0E089818083EEE2F0E08081AD
:10180000882324F0809116028823B9F38A819B8172
:10181000009731F0EFE2F0E08081EA81FB81808384
:1018200080E090E023960FB6F894DEBF0FBECDBFE8
:10183000DF91CF910895CF93DF93CDB7DEB7269791
:101840000FB6F894DEBF0FBECDBF9A838983E1E760
:10185000F0E0108280E790E09C838B8389819A81FD
:101860009C01442737FD4095542F80E49FE1A0E080
:10187000B0E0BC01CD010E94D414DA01C901409747
:101880009E838D83ED81FE81FF232CF48D819E81CB
:1018900001969E838D838D819E8195958795EB81A1
:1018A000FC818083E4E7F0E084E0808326960FB635
:1018B000F894DEBF0FBECDBFDF91CF910895CF93D7
:1018C000DF93CDB7DEB727970FB6F894DEBF0FBE14
:1018D000CDBF8C836D838C81880F8C838D81882311
:1018E00019F08C8181608C831A82198244C0E4E7EC
:1018F000F0E084EA8083E4E7F0E08081882324F04C
:10190000809116028823B9F3E1E7F0E0908188EF37
:1019100089238B838B81883019F08B81803131F55D
:10192000E3E7F0E08C818083E4E7F0E084E8808303
:10193000E4E7F0E08081882324F080911602882378
:10194000B9F3E1E7F0E0908188EF89238B838D8103
:10195000882319F48B81883131F08D81882331F00F
:101960008B81803419F41F821E8214C089819A8170
:1019700001969A83898389819A8123E0883E920720
:101980002CF480911602882309F4B1CF81E090E015
:101990009F838E838E819F8127960FB6F894DEBF3A
:1019A0000FBECDBFDF91CF910895CF93DF93CDB719
:1019B000DEB721970FB6F894DEBF0FBECDBF898387
:1019C00060E089810E945F0C882F90E021960FB61D
:1019D000F894DEBF0FBECDBFDF91CF910895CF93B6
:1019E000DF93CDB7DEB723970FB6F894DEBF0FBEF7
:1019F000CDBF8983E3E7F0E089818083E4E7F0E00D
:101A000084E88083E4E7F0E08081882324F08091FB
:101A100016028823B9F3E1E7F0E08081882F90E097
:101A2000887F90708832910529F081E090E09B8357
:101A30008A8302C01B821A828A819B8123960FB6F9
:101A4000F894DEBF0FBECDBFDF91CF910895CF9345
:101A5000DF93CDB7DEB721970FB6F894DEBF0FBE88
:101A6000CDBF898361E089810E945F0C882F90E05F
:101A700021960FB6F894DEBF0FBECDBFDF91CF9198
:101A80000895CF93DF93CDB7DEB725970FB6F894BF
:101A9000DEBF0FBECDBF9A8389836B838B81882382
:101AA00029F0E4E7F0E084E8808304C0E4E7F0E0B4
:101AB00084EC8083E4E7F0E08081882324F0809147
:101AC00016028823B9F380911602882329F081E059
:101AD00090E09D838C8308C0E3E7F0E08081E9819A
:101AE000FA8180831D821C828C819D8125960FB690
:101AF000F894DEBF0FBECDBFDF91CF910895CF9395
:101B0000DF93CDB7DEB7E4E7F0E084E98083DF91CF
:101B1000CF910895EF92FF920F931F937B018C0159
:101B200020E030E040E05FE40E943E1188237CF03A
:101B300020E030E040E05FE4C801B7010E94F60E0B
:101B40000E940812605070408040904804C0C80154
:101B5000B7010E9408121F910F91FF90EF90089516
:101B6000A0E0B0E0E6EBFDE00C940C152C015B016D
:101B7000FA01DC019C91923008F432C1EB018881BA
:101B8000823008F42CC1943071F4843009F028C1FB
:101B9000F20191818981981709F422C11DE0412E3B
:101BA00011E0512E1DC1843009F419C18230A9F40D
:101BB000923009F015C1CA01A20128E0DA010D90A6
:101BC000AD01EC010992CE012150C1F7E5018981F7
:101BD000E20199818923818300C1923009F4FFC019
:101BE000E201CA80DB80EB018A819B81E2012C81CA
:101BF0003D814E815F81EB01EC80FD800E811F8174
:101C0000B601681B790BDB0177FF03C07095619506
:101C10007F4F603271050CF05DC01A161B065CF533
:101C200066247724430181E090E0A0E0B0E0062E36
:101C300004C0880F991FAA1FBB1F0A94D2F70197EF
:101C4000A109B1098E219F21A023B1230097A105ED
:101C5000B10529F0B1E06B2E712C812C912C04C0C0
:101C600016950795F794E7946A95D2F7E628F72832
:101C7000082919293BC0AB2BC9F1C60ED71E662413
:101C80007724430181E090E0A0E0B0E0062E04C09C
:101C9000880F991FAA1FBB1F0A94D2F70197A109A9
:101CA000B10982239323A423B5230097A105B1058D
:101CB00029F0A1E06A2E712C812C912C04C056953C
:101CC0004795379527956A95D2F7262937294829C8
:101CD00059290CC08C159D0534F06C0120E030E0D2
:101CE00040E050E003C0EE24FF248701E201998127
:101CF000E5018981981709F443C0992339F0E21A64
:101D0000F30A040B150BA801970104C02E193F0913
:101D1000400B510B57FD08C01182D382C28224832D
:101D20003583468357831DC081E08183D382C2827D
:101D300088279927DC01821B930BA40BB50B8483A6
:101D40009583A683B7830DC0220F331F441F551FF1
:101D500024833583468357838281938101979383BC
:101D600082832481358146815781DA01C901019737
:101D7000A109B1098F5F9F4FAF4FBF4328F30BC03D
:101D80009183D382C2822E0D3F1D401F511F248399
:101D900035834683578383E0808324813581468160
:101DA00057815523D4F4C901AA2797FDA095BA2FCE
:101DB00081709070A070B0705695479537952795B3
:101DC000822B932BA42BB52B84839583A683B78377
:101DD000828193810196938382832F0101C0250123
:101DE000C201E0E1CDB7DEB70C942815A0E2B0E067
:101DF000ECEFFEE00C94161569837A838B839C8349
:101E00002D833E834F83588709E0E02EF12CEC0EA2
:101E1000FD1EB701CE0101960E94FB138E010F5EDD
:101E20001F4FB801CE0105960E94FB138A8991E0ED
:101E300089278A8BAE01475E5F4FB801C7010E94B8
:101E4000B00D0E941B13E6E0A0960C943215A0E2A0
:101E5000B0E0EDE2FFE00C94161569837A838B8382
:101E60009C832D833E834F83588789E0E82EF12C95
:101E7000EC0EFD1EB701CE0101960E94FB138E01F0
:101E80000F5E1F4FB801CE0105960E94FB13AE01F5
:101E9000475E5F4FB801C7010E94B00D0E941B133F
:101EA000E6E0A0960C943215A0E2B0E0EAE5FFE08F
:101EB0000C940C1569837A838B839C832D833E83DA
:101EC0004F83588799E0E92EF12CEC0EFD1EB701E7
:101ED000CE0101960E94FB138E010F5E1F4FB801C9
:101EE000CE0105960E94FB139985923088F089896E
:101EF0008230C0F0943019F4823029F009C0843067
:101F000029F4923079F46DE071E0C6C0923041F46A
:101F100020E09A858A89981321E02A87B701BCC0FE
:101F2000823041F420E09A858A89981321E02A8B37
:101F3000B801B2C0CD84DE84EF84F8880D891E8993
:101F40002F89388D88249924540140E050E060E0C6
:101F500070E0442455243201E0E0F0E0C6018170D5
:101F60009070892BD9F0800E911EA21EB31EDB014A
:101F7000CA01840D951DA61DB71D40E050E060E02C
:101F800070E080169106A206B30620F441E050E00E
:101F900060E070E0480F591F6A1F7B1F440C551CFE
:101FA000661C771C37FF08C081E090E0A0E0B0E03D
:101FB000482A592A6A2A7B2A3196E032F10549F0EB
:101FC000000F111F221F331FF694E794D794C79474
:101FD000C5CF8B899C892B853C85820F931F0296E8
:101FE0009C8F8B8F1A8E9A858A89981711F081E0C1
:101FF0008A8F2B8D3C8D17C0CA0181709070892B00
:1020000061F0B694A7949794879480E090E0A0E064
:10201000B0E8882A992AAA2ABB2A76956795579507
:1020200047952F5F3F4F77FDE7CFC9010BC0440FA6
:10203000551F661F771FB7FC4160880C991CAA1CAE
:10204000BB1C01974030A0E05A07A0E06A07A0E45B
:102050007A0768F39C8F8B8FDB01CA018F779070B2
:10206000A070B07080349105A105B10561F447FD01
:102070000AC081149104A104B10429F0405C5F4FAF
:102080006F4F7F4F40784D8F5E8F6F8F78A383E0C7
:10209000898FBE01675E7F4FCB010E941B13E0E179
:1020A000A0960C942815A8E1B0E0E9E5F0E10C94C5
:1020B000121569837A838B839C832D833E834F83A0
:1020C00058878E01075F1F4FB801CE0101960E940D
:1020D000FB1381E1E82EF12CEC0EFD1EB701CE01C1
:1020E00005960E94FB1339853230F8F02989223099
:1020F00010F4B70186C08A859A8989278A87343087
:1021000011F0323029F4321781F46DE071E079C0BA
:10211000243039F41D861E861F86188A1C861B866D
:1021200004C0223021F484E08987B8016AC06B853D
:102130007C858B899C89681B790B7C876B872D85B7
:102140003E854F8558898D899E89AF89B88D28171E
:1021500039074A075B0740F4220F331F441F551FFE
:10216000615070407C876B87A12CB12CC12C10E48E
:10217000D12EEE24FF24870160E070E02817390794
:102180004A075B0740F0EA28FB280C291D29281B79
:10219000390B4A0B5B0BD694C794B794A794220FC4
:1021A000331F441F551F6F5F7F4F6F31710531F72C
:1021B000D801C7018F779070A070B07080349105FE
:1021C000A105B105B9F4E7FC15C02115310541059C
:1021D000510581F080E490E0A0E0B0E0E80EF91E47
:1021E0000A1F1B1F80E89FEFAFEFBFEFE822F92225
:1021F0000A231B23ED86FE860F87188BBE01675FBF
:102200007F4FCB010E941B13EAE068960C942E15B9
:10221000A8E1B0E0EEE0F1E10C94161569837A8351
:102220008B839C832D833E834F83588789E0E82EE0
:10223000F12CEC0EFD1EB701CE0101960E94FB139E
:102240008E010F5E1F4FB801CE0105960E94FB1351
:102250008985823060F08989823048F0B801C701F1
:102260000E946B14282F332727FD309502C02FEFD3
:102270003FEFC901E6E068960C943215A8E1B0E0A2
:10228000E4E4F1E10C94161569837A838B839C83D3
:102290002D833E834F83588789E0E82EF12CEC0E86
:1022A000FD1EB701CE0101960E94FB138E010F5E49
:1022B0001F4FB801CE0105960E94FB13898582301D
:1022C00060F08989823048F0B801C7010E946B1420
:1022D000282F332727FD309502C02FEF3FEFC9018C
:1022E000E6E068960C943215A8E1B0E0EAE7F1E187
:1022F0000C94161569837A838B839C832D833E838C
:102300004F83588789E0E82EF12CEC0EFD1EB701B3
:10231000CE0101960E94FB138E010F5E1F4FB80184
:10232000CE0105960E94FB138985823060F0898971
:10233000823048F0B801C7010E946B14282F332760
:1023400027FD309502C021E030E0C901E6E0689643
:102350000C943215A8E0B0E0E0EBF1E10C94131519
:102360009B01AC0183E08983DA01C9018827B7FDAD
:1023700083959927AA27BB27B82E2115310541053A
:10238000510519F482E089833AC08823A9F02030EE
:1023900080E0380780E0480780E8580729F460E0CB
:1023A00070E080E09FEC30C0EE24FF248701E21A49
:1023B000F30A040B150B02C079018A018EE1C82EC5
:1023C000D12CDC82CB82ED82FE820F831887C8017C
:1023D000B7010E94CE1201971816190684F4082E30
:1023E00004C0EE0CFF1C001F111F0A94D2F7ED82EF
:1023F000FE820F831887C81AD90ADC82CB82BA8280
:10240000CE0101960E941B13E9E028960C942F152B
:10241000ACE0B0E0EEE0F2E10C941A1569837A8347
:102420008B839C83BE016B5F7F4FCE0101960E9420
:10243000FB138D818230A9F1823098F1843021F430
:102440008E81882359F40FC02F81388537FD29C02C
:102450006E812F31310564F0662329F020E030E0F1
:1024600040E050E822C02FEF3FEF4FEF5FE71DC085
:102470008EE190E0821B930B29853A854B855C8524
:1024800004C056954795379527958A95D2F76623C8
:1024900061F050954095309521953F4F4F4F5F4FDC
:1024A00004C020E030E040E050E0CA01B901E2E0C1
:1024B0002C960C943615A8E0B0E0E1E6F2E10C941D
:1024C00014157B018C01611571058105910519F4C5
:1024D00082E089835AC083E089838EE1C82ED12CA3
:1024E000DC82CB82ED82FE820F831887C801B701A0
:1024F0000E94CE12BC016150704077FF33C0EE27BE
:10250000FF27E61BF70B20E030E040E050E081E0E1
:1025100090E0A0E0B0E00E2E04C0880F991FAA1F23
:10252000BB1F0A94D2F70197A109B1098E219F21FF
:10253000A023B1230097A105B10521F021E030E0EF
:1025400040E050E004C016950795F794E794EA95AB
:10255000D2F72E293F29402B512B2D833E834F83C9
:1025600058870FC06115710581F0062E04C0EE0C6E
:10257000FF1C001F111F0A94D2F7ED82FE820F8309
:102580001887C61AD70ADC82CB821A82CE0101963E
:102590000E941B13E8E028960C943015EF92FF92EE
:1025A0000F931F939B01AC01203080E0380781E03E
:1025B000480780E0580780F42F3F31054105510559
:1025C00009F020F4EE24FF24870119C068E0E62E0C
:1025D000F12C012D112D13C0203080E0380780E050
:1025E000480781E0580730F490E1E92EF12C012DE5
:1025F000112D05C088E1E82EF12C012D112D80E26E
:1026000090E0A0E0B0E08E199F09A00BB10B04C0D0
:102610005695479537952795EA94D2F7F901EB5EE1
:10262000FE4F2081821B9109A109B1091F910F91D1
:10263000FF90EF9008959F92AF92BF92CF92DF925A
:10264000EF92FF920F931F93EE24FF248701FC016A
:10265000248135814681578191808081823010F4B8
:102660004061A2C0843009F49BC0823029F420E08C
:1026700030E040E050E005C021153105410551052D
:1026800019F4E0E0F0E092C0828193816FEF82382C
:1026900096070CF05AC062E87FEF681B790B6A312D
:1026A00071052CF020E030E040E050E02AC0AA2480
:1026B000BB24650181E090E0A0E0B0E0062E04C0FC
:1026C000880F991FAA1FBB1F0A94D2F70197A1096F
:1026D000B10982239323A423B5230097A105B10553
:1026E00029F071E0A72EB12CC12CD12C04C0569535
:1026F0004795379527956A95D2F72A293B294C2982
:102700005D29DA01C9018F779070A070B0708034B4
:102710009105A105B10539F427FF09C0205C3F4FA1
:102720004F4F5F4F04C0215C3F4F4F4F5F4F80E0E2
:1027300090E0203060E0360760E0460760E456072E
:1027400010F081E090E0FC0123C08038910544F551
:10275000FC01E158FF4FDA01C9018F779070A0703A
:10276000B07080349105A105B10539F427FF09C087
:10277000205C3F4F4F4F5F4F04C0215C3F4F4F4F96
:102780005F4F57FF05C0569547953795279531966A
:1027900087E056954795379527958A95D1F706C0D6
:1027A00020E030E040E050E0EFEFF0E0E22EF32EEA
:1027B000942F9F77802F8078892B9E2F979599272C
:1027C00097958F77082F092B9E2F9695812F8078CC
:1027D000892B9794992497948F77182F1929C801DA
:1027E000B7011F910F91FF90EF90DF90CF90BF90B6
:1027F000AF909F900895CF93DF93FC01DB01208180
:1028000031819281492F4F7750E0991F9927991F65
:102810008381E82FEE0FE92B6E2F70E0881F882749
:10282000881FED018983EE2371F5211531054105DE
:10283000510511F482E02FC06E577040FD01738383
:10284000628367E0220F331F441F551F6A95D1F73B
:1028500083E08C930AC0220F331F441F551FED01E4
:102860008A819B8101979B838A832030E0E03E0729
:10287000E0E04E07E0E45E0770F3ED012C833D835A
:102880004E835F8325C0EF3F79F421153105410563
:10289000510519F484E08C931BC044FF03C081E010
:1028A0008C9311C01C920FC06F577040ED017B8359
:1028B0006A8383E08C9387E0220F331F441F551FE8
:1028C0008A95D1F75064FD0124833583468357836D
:1028D000DF91CF910895CF93DF93DC01FB019C91B1
:1028E000923008F446C08081823008F442C09430AF
:1028F00049F4ED016981843079F5818190E0861B8E
:1029000091093CC0843021F0923031F48230A1F141
:102910008181882371F52AC0ED0169818230E1F05F
:1029200081816817C9F4ED012A813B8182819381FD
:10293000821793078CF028173907B4F0ED018C81CA
:102940009D81AE81BF8124813581468157812817C1
:1029500039074A075B0718F4662341F40AC0821757
:102960009307A407B50740F4662319F48FEF9FEF90
:1029700005C081E090E002C080E090E0DF91CF915F
:10298000089597FB092E07260AD077FD04D02ED094
:1029900006D000201AF4709561957F4F0895F6F7E0
:1029A000909581959F4F0895A1E21A2EAA1BBB1BFB
:1029B000FD010DC0AA1FBB1FEE1FFF1FA217B3070B
:1029C000E407F50720F0A21BB30BE40BF50B661F21
:1029D000771F881F991F1A9469F7609570958095E5
:1029E00090959B01AC01BD01CF010895AA1BBB1BB3
:1029F00051E107C0AA1FBB1FA617B70710F0A61BFF
:102A0000B70B881F991F5A95A9F780959095BC011F
:102A1000CD0108952F923F924F925F926F927F92D5
:102A20008F929F92AF92BF92CF92DF92EF92FF92DE
:102A30000F931F93CF93DF93CDB7DEB7CA1BDB0B8A
:102A40000FB6F894DEBF0FBECDBF09942A8839882F
:102A500048885F846E847D848C849B84AA84B98436
:102A6000C884DF80EE80FD800C811B81AA81B98142
:102A7000CE0FD11D0FB6F894DEBF0FBECDBFED0156
:042A80000895FFCFE7
:102A840028F91C58C94A0AF80848FFDFF700000073
:102A94000000000000000102020303030304040415
:102AA40004040404040505050505050505050505D7
:102AB40005050505050606060606060606060606B7
:102AC40006060606060606060606060606060606A2
:102AD4000606060606070707070707070707070787
:102AE4000707070707070707070707070707070772
:102AF4000707070707070707070707070707070762
:102B04000707070707070707070707070707070751
:102B14000707070707080808080808080808080836
:102B24000808080808080808080808080808080821
:102B34000808080808080808080808080808080811
:102B44000808080808080808080808080808080801
:102B540008080808080808080808080808080808F1
:102B640008080808080808080808080808080808E1
:102B740008080808080808080808080808080808D1
:102B840008080808080808080808080808080808C1
:062B940008080808080013
:00000001FF
